{"contracts/Health.sol":{"HealthBk":{"abi":[{"inputs":[{"internalType":"address","name":"_address","type":"address"},{"internalType":"string","name":"index","type":"string"}],"name":"approveAccess","outputs":[],"stateMutability":"nonpayable","type":"function"},{"inputs":[{"internalType":"string","name":"index","type":"string"}],"name":"canAccess","outputs":[{"internalType":"bool","name":"","type":"bool"}],"stateMutability":"view","type":"function"},{"inputs":[{"internalType":"string","name":"_name","type":"string"},{"internalType":"uint256","name":"_number","type":"uint256"},{"internalType":"uint256","name":"_age","type":"uint256"}],"name":"createDoctor","outputs":[],"stateMutability":"nonpayable","type":"function"},{"inputs":[{"internalType":"string","name":"_name","type":"string"},{"internalType":"uint256","name":"_number","type":"uint256"},{"internalType":"uint256","name":"_age","type":"uint256"}],"name":"createUser","outputs":[],"stateMutability":"nonpayable","type":"function"},{"inputs":[],"name":"getAllFiles","outputs":[{"components":[{"internalType":"string","name":"fileCid","type":"string"},{"internalType":"string","name":"fileName","type":"string"},{"internalType":"string","name":"createdAt","type":"string"},{"internalType":"address[]","name":"approvals","type":"address[]"}],"internalType":"struct HealthBk.file[]","name":"","type":"tuple[]"}],"stateMutability":"view","type":"function"},{"inputs":[{"internalType":"string","name":"index","type":"string"}],"name":"getFile","outputs":[{"components":[{"internalType":"string","name":"fileCid","type":"string"},{"internalType":"string","name":"fileName","type":"string"},{"internalType":"string","name":"createdAt","type":"string"},{"internalType":"address[]","name":"approvals","type":"address[]"}],"internalType":"struct HealthBk.file","name":"","type":"tuple"}],"stateMutability":"view","type":"function"},{"inputs":[{"internalType":"string","name":"_hash","type":"string"},{"internalType":"string","name":"_name","type":"string"},{"internalType":"string","name":"_timestamp","type":"string"}],"name":"uploadFile","outputs":[],"stateMutability":"nonpayable","type":"function"}],"evm":{"bytecode":{"linkReferences":{},"object":"60806040526000805534801561001457600080fd5b50611d00806100246000396000f3fe608060405234801561001057600080fd5b506004361061007d5760003560e01c8063e0876aa81161005b578063e0876aa8146100d6578063e393115414610106578063e4ecb7dd14610136578063ff24b5d5146101525761007d565b806308ea7d211461008257806392bb481a1461009e578063d60993ae146100ba575b600080fd5b61009c6004803603810190610097919061101e565b610170565b005b6100b860048036038101906100b39190611092565b6102b7565b005b6100d460048036038101906100cf919061101e565b6104fa565b005b6100f060048036038101906100eb9190611287565b6105cb565b6040516100fd91906114b7565b60405180910390f35b610120600480360381019061011b91906114d9565b610847565b60405161012d9190611541565b60405180910390f35b610150600480360381019061014b9190611588565b61096b565b005b61015a6109f1565b604051610167919061171e565b60405180910390f35b60008067ffffffffffffffff81111561018c5761018b61115c565b5b6040519080825280602002602001820160405280156101bf57816020015b60608152602001906001900390816101aa5790505b509050604051806080016040528086868080601f016020809104026020016040519081016040528093929190818152602001838380828437600081840152601f19601f82011690508083019250505050505050815260200184815260200183815260200182815250600160003373ffffffffffffffffffffffffffffffffffffffff1673ffffffffffffffffffffffffffffffffffffffff168152602001908152602001600020600082015181600001908161027b919061194c565b50602082015181600101556040820151816002015560608201518160030190805190602001906102ac929190610de3565b509050505050505050565b60008067ffffffffffffffff8111156102d3576102d261115c565b5b6040519080825280602002602001820160405280156103015781602001602082028036833780820191505090505b509050604051806080016040528088888080601f016020809104026020016040519081016040528093929190818152602001838380828437600081840152601f19601f82011690508083019250505050505050815260200186868080601f016020809104026020016040519081016040528093929190818152602001838380828437600081840152601f19601f82011690508083019250505050505050815260200184848080601f016020809104026020016040519081016040528093929190818152602001838380828437600081840152601f19601f8201169050808301925050505050505081526020018281525060038888604051610403929190611a4e565b90815260200160405180910390206000820151816000019081610426919061194c565b50602082015181600101908161043c919061194c565b506040820151816002019081610452919061194c565b50606082015181600301908051906020019061046f929190610e3c565b50905050600160003373ffffffffffffffffffffffffffffffffffffffff1673ffffffffffffffffffffffffffffffffffffffff1681526020019081526020016000206003018787909180600181540180825580915050600190039060005260206000200160009091929091929091929091925091826104f0929190611a72565b5050505050505050565b604051806060016040528085858080601f016020809104026020016040519081016040528093929190818152602001838380828437600081840152601f19601f82011690508083019250505050505050815260200183815260200182815250600260003373ffffffffffffffffffffffffffffffffffffffff1673ffffffffffffffffffffffffffffffffffffffff16815260200190815260200160002060008201518160000190816105ad919061194c565b50602082015181600101556040820151816002015590505050505050565b6105d3610ec6565b6003826040516105e39190611b73565b908152602001604051809103902060405180608001604052908160008201805461060c9061176f565b80601f01602080910402602001604051908101604052809291908181526020018280546106389061176f565b80156106855780601f1061065a57610100808354040283529160200191610685565b820191906000526020600020905b81548152906001019060200180831161066857829003601f168201915b5050505050815260200160018201805461069e9061176f565b80601f01602080910402602001604051908101604052809291908181526020018280546106ca9061176f565b80156107175780601f106106ec57610100808354040283529160200191610717565b820191906000526020600020905b8154815290600101906020018083116106fa57829003601f168201915b505050505081526020016002820180546107309061176f565b80601f016020809104026020016040519081016040528092919081815260200182805461075c9061176f565b80156107a95780601f1061077e576101008083540402835291602001916107a9565b820191906000526020600020905b81548152906001019060200180831161078c57829003601f168201915b505050505081526020016003820180548060200260200160405190810160405280929190818152602001828054801561083757602002820191906000526020600020905b8160009054906101000a900473ffffffffffffffffffffffffffffffffffffffff1673ffffffffffffffffffffffffffffffffffffffff16815260200190600101908083116107ed575b5050505050815250509050919050565b6000806003848460405161085c929190611a4e565b9081526020016040518091039020600301805490500361087f5760009050610965565b60005b60038484604051610894929190611a4e565b90815260200160405180910390206003018054905081101561095f573373ffffffffffffffffffffffffffffffffffffffff16600385856040516108d9929190611a4e565b908152602001604051809103902060030182815481106108fc576108fb611b8a565b5b9060005260206000200160009054906101000a900473ffffffffffffffffffffffffffffffffffffffff1673ffffffffffffffffffffffffffffffffffffffff160361094c576001915050610965565b808061095790611be8565b915050610882565b50600090505b92915050565b60038160405161097b9190611b73565b9081526020016040518091039020600301829080600181540180825580915050600190039060005260206000200160009091909190916101000a81548173ffffffffffffffffffffffffffffffffffffffff021916908373ffffffffffffffffffffffffffffffffffffffff1602179055505050565b60606000600160003373ffffffffffffffffffffffffffffffffffffffff1673ffffffffffffffffffffffffffffffffffffffff1681526020019081526020016000206003018054905067ffffffffffffffff811115610a5457610a5361115c565b5b604051908082528060200260200182016040528015610a8d57816020015b610a7a610ec6565b815260200190600190039081610a725790505b50905060005b600160003373ffffffffffffffffffffffffffffffffffffffff1673ffffffffffffffffffffffffffffffffffffffff16815260200190815260200160002060030180549050811015610ddb576003600160003373ffffffffffffffffffffffffffffffffffffffff1673ffffffffffffffffffffffffffffffffffffffff1681526020019081526020016000206003018281548110610b3657610b35611b8a565b5b90600052602060002001604051610b4d9190611cb3565b9081526020016040518091039020604051806080016040529081600082018054610b769061176f565b80601f0160208091040260200160405190810160405280929190818152602001828054610ba29061176f565b8015610bef5780601f10610bc457610100808354040283529160200191610bef565b820191906000526020600020905b815481529060010190602001808311610bd257829003601f168201915b50505050508152602001600182018054610c089061176f565b80601f0160208091040260200160405190810160405280929190818152602001828054610c349061176f565b8015610c815780601f10610c5657610100808354040283529160200191610c81565b820191906000526020600020905b815481529060010190602001808311610c6457829003601f168201915b50505050508152602001600282018054610c9a9061176f565b80601f0160208091040260200160405190810160405280929190818152602001828054610cc69061176f565b8015610d135780601f10610ce857610100808354040283529160200191610d13565b820191906000526020600020905b815481529060010190602001808311610cf657829003601f168201915b5050505050815260200160038201805480602002602001604051908101604052809291908181526020018280548015610da157602002820191906000526020600020905b8160009054906101000a900473ffffffffffffffffffffffffffffffffffffffff1673ffffffffffffffffffffffffffffffffffffffff1681526020019060010190808311610d57575b505050505081525050828281518110610dbd57610dbc611b8a565b5b60200260200101819052508080610dd390611be8565b915050610a93565b508091505090565b828054828255906000526020600020908101928215610e2b579160200282015b82811115610e2a578251829081610e1a919061194c565b5091602001919060010190610e03565b5b509050610e389190610eee565b5090565b828054828255906000526020600020908101928215610eb5579160200282015b82811115610eb45782518260006101000a81548173ffffffffffffffffffffffffffffffffffffffff021916908373ffffffffffffffffffffffffffffffffffffffff16021790555091602001919060010190610e5c565b5b509050610ec29190610f12565b5090565b6040518060800160405280606081526020016060815260200160608152602001606081525090565b5b80821115610f0e5760008181610f059190610f2f565b50600101610eef565b5090565b5b80821115610f2b576000816000905550600101610f13565b5090565b508054610f3b9061176f565b6000825580601f10610f4d5750610f6c565b601f016020900490600052602060002090810190610f6b9190610f12565b5b50565b6000604051905090565b600080fd5b600080fd5b600080fd5b600080fd5b600080fd5b60008083601f840112610fa857610fa7610f83565b5b8235905067ffffffffffffffff811115610fc557610fc4610f88565b5b602083019150836001820283011115610fe157610fe0610f8d565b5b9250929050565b6000819050919050565b610ffb81610fe8565b811461100657600080fd5b50565b60008135905061101881610ff2565b92915050565b6000806000806060858703121561103857611037610f79565b5b600085013567ffffffffffffffff81111561105657611055610f7e565b5b61106287828801610f92565b9450945050602061107587828801611009565b925050604061108687828801611009565b91505092959194509250565b600080600080600080606087890312156110af576110ae610f79565b5b600087013567ffffffffffffffff8111156110cd576110cc610f7e565b5b6110d989828a01610f92565b9650965050602087013567ffffffffffffffff8111156110fc576110fb610f7e565b5b61110889828a01610f92565b9450945050604087013567ffffffffffffffff81111561112b5761112a610f7e565b5b61113789828a01610f92565b92509250509295509295509295565b600080fd5b6000601f19601f8301169050919050565b7f4e487b7100000000000000000000000000000000000000000000000000000000600052604160045260246000fd5b6111948261114b565b810181811067ffffffffffffffff821117156111b3576111b261115c565b5b80604052505050565b60006111c6610f6f565b90506111d2828261118b565b919050565b600067ffffffffffffffff8211156111f2576111f161115c565b5b6111fb8261114b565b9050602081019050919050565b82818337600083830152505050565b600061122a611225846111d7565b6111bc565b90508281526020810184848401111561124657611245611146565b5b611251848285611208565b509392505050565b600082601f83011261126e5761126d610f83565b5b813561127e848260208601611217565b91505092915050565b60006020828403121561129d5761129c610f79565b5b600082013567ffffffffffffffff8111156112bb576112ba610f7e565b5b6112c784828501611259565b91505092915050565b600081519050919050565b600082825260208201905092915050565b60005b8381101561130a5780820151818401526020810190506112ef565b60008484015250505050565b6000611321826112d0565b61132b81856112db565b935061133b8185602086016112ec565b6113448161114b565b840191505092915050565b600081519050919050565b600082825260208201905092915050565b6000819050602082019050919050565b600073ffffffffffffffffffffffffffffffffffffffff82169050919050565b60006113a68261137b565b9050919050565b6113b68161139b565b82525050565b60006113c883836113ad565b60208301905092915050565b6000602082019050919050565b60006113ec8261134f565b6113f6818561135a565b93506114018361136b565b8060005b8381101561143257815161141988826113bc565b9750611424836113d4565b925050600181019050611405565b5085935050505092915050565b6000608083016000830151848203600086015261145c8282611316565b915050602083015184820360208601526114768282611316565b915050604083015184820360408601526114908282611316565b915050606083015184820360608601526114aa82826113e1565b9150508091505092915050565b600060208201905081810360008301526114d1818461143f565b905092915050565b600080602083850312156114f0576114ef610f79565b5b600083013567ffffffffffffffff81111561150e5761150d610f7e565b5b61151a85828601610f92565b92509250509250929050565b60008115159050919050565b61153b81611526565b82525050565b60006020820190506115566000830184611532565b92915050565b6115658161139b565b811461157057600080fd5b50565b6000813590506115828161155c565b92915050565b6000806040838503121561159f5761159e610f79565b5b60006115ad85828601611573565b925050602083013567ffffffffffffffff8111156115ce576115cd610f7e565b5b6115da85828601611259565b9150509250929050565b600081519050919050565b600082825260208201905092915050565b6000819050602082019050919050565b6000608083016000830151848203600086015261162d8282611316565b915050602083015184820360208601526116478282611316565b915050604083015184820360408601526116618282611316565b9150506060830151848203606086015261167b82826113e1565b9150508091505092915050565b60006116948383611610565b905092915050565b6000602082019050919050565b60006116b4826115e4565b6116be81856115ef565b9350836020820285016116d085611600565b8060005b8581101561170c57848403895281516116ed8582611688565b94506116f88361169c565b925060208a019950506001810190506116d4565b50829750879550505050505092915050565b6000602082019050818103600083015261173881846116a9565b905092915050565b7f4e487b7100000000000000000000000000000000000000000000000000000000600052602260045260246000fd5b6000600282049050600182168061178757607f821691505b60208210810361179a57611799611740565b5b50919050565b60008190508160005260206000209050919050565b60006020601f8301049050919050565b600082821b905092915050565b6000600883026118027fffffffffffffffffffffffffffffffffffffffffffffffffffffffffffffffff826117c5565b61180c86836117c5565b95508019841693508086168417925050509392505050565b6000819050919050565b600061184961184461183f84610fe8565b611824565b610fe8565b9050919050565b6000819050919050565b6118638361182e565b61187761186f82611850565b8484546117d2565b825550505050565b600090565b61188c61187f565b61189781848461185a565b505050565b5b818110156118bb576118b0600082611884565b60018101905061189d565b5050565b601f821115611900576118d1816117a0565b6118da846117b5565b810160208510156118e9578190505b6118fd6118f5856117b5565b83018261189c565b50505b505050565b600082821c905092915050565b600061192360001984600802611905565b1980831691505092915050565b600061193c8383611912565b9150826002028217905092915050565b611955826112d0565b67ffffffffffffffff81111561196e5761196d61115c565b5b611978825461176f565b6119838282856118bf565b600060209050601f8311600181146119b657600084156119a4578287015190505b6119ae8582611930565b865550611a16565b601f1984166119c4866117a0565b60005b828110156119ec578489015182556001820191506020850194506020810190506119c7565b86831015611a095784890151611a05601f891682611912565b8355505b6001600288020188555050505b505050505050565b600081905092915050565b6000611a358385611a1e565b9350611a42838584611208565b82840190509392505050565b6000611a5b828486611a29565b91508190509392505050565b600082905092915050565b611a7c8383611a67565b67ffffffffffffffff811115611a9557611a9461115c565b5b611a9f825461176f565b611aaa8282856118bf565b6000601f831160018114611ad95760008415611ac7578287013590505b611ad18582611930565b865550611b39565b601f198416611ae7866117a0565b60005b82811015611b0f57848901358255600182019150602085019450602081019050611aea565b86831015611b2c5784890135611b28601f891682611912565b8355505b6001600288020188555050505b50505050505050565b6000611b4d826112d0565b611b578185611a1e565b9350611b678185602086016112ec565b80840191505092915050565b6000611b7f8284611b42565b915081905092915050565b7f4e487b7100000000000000000000000000000000000000000000000000000000600052603260045260246000fd5b7f4e487b7100000000000000000000000000000000000000000000000000000000600052601160045260246000fd5b6000611bf382610fe8565b91507fffffffffffffffffffffffffffffffffffffffffffffffffffffffffffffffff8203611c2557611c24611bb9565b5b600182019050919050565b60008154611c3d8161176f565b611c478186611a1e565b94506001821660008114611c625760018114611c7757611caa565b60ff1983168652811515820286019350611caa565b611c80856117a0565b60005b83811015611ca257815481890152600182019150602081019050611c83565b838801955050505b50505092915050565b6000611cbf8284611c30565b91508190509291505056fea2646970667358221220ac85edf726898aa5354acdef42b4f75b4b1123dfc0ce7732bec17b463fb2d91064736f6c63430008110033","opcodes":"PUSH1 0x80 PUSH1 0x40 MSTORE PUSH1 0x0 DUP1 SSTORE CALLVALUE DUP1 ISZERO PUSH2 0x14 JUMPI PUSH1 0x0 DUP1 REVERT JUMPDEST POP PUSH2 0x1D00 DUP1 PUSH2 0x24 PUSH1 0x0 CODECOPY PUSH1 0x0 RETURN INVALID PUSH1 0x80 PUSH1 0x40 MSTORE CALLVALUE DUP1 ISZERO PUSH2 0x10 JUMPI PUSH1 0x0 DUP1 REVERT JUMPDEST POP PUSH1 0x4 CALLDATASIZE LT PUSH2 0x7D JUMPI PUSH1 0x0 CALLDATALOAD PUSH1 0xE0 SHR DUP1 PUSH4 0xE0876AA8 GT PUSH2 0x5B JUMPI DUP1 PUSH4 0xE0876AA8 EQ PUSH2 0xD6 JUMPI DUP1 PUSH4 0xE3931154 EQ PUSH2 0x106 JUMPI DUP1 PUSH4 0xE4ECB7DD EQ PUSH2 0x136 JUMPI DUP1 PUSH4 0xFF24B5D5 EQ PUSH2 0x152 JUMPI PUSH2 0x7D JUMP JUMPDEST DUP1 PUSH4 0x8EA7D21 EQ PUSH2 0x82 JUMPI DUP1 PUSH4 0x92BB481A EQ PUSH2 0x9E JUMPI DUP1 PUSH4 0xD60993AE EQ PUSH2 0xBA JUMPI JUMPDEST PUSH1 0x0 DUP1 REVERT JUMPDEST PUSH2 0x9C PUSH1 0x4 DUP1 CALLDATASIZE SUB DUP2 ADD SWAP1 PUSH2 0x97 SWAP2 SWAP1 PUSH2 0x101E JUMP JUMPDEST PUSH2 0x170 JUMP JUMPDEST STOP JUMPDEST PUSH2 0xB8 PUSH1 0x4 DUP1 CALLDATASIZE SUB DUP2 ADD SWAP1 PUSH2 0xB3 SWAP2 SWAP1 PUSH2 0x1092 JUMP JUMPDEST PUSH2 0x2B7 JUMP JUMPDEST STOP JUMPDEST PUSH2 0xD4 PUSH1 0x4 DUP1 CALLDATASIZE SUB DUP2 ADD SWAP1 PUSH2 0xCF SWAP2 SWAP1 PUSH2 0x101E JUMP JUMPDEST PUSH2 0x4FA JUMP JUMPDEST STOP JUMPDEST PUSH2 0xF0 PUSH1 0x4 DUP1 CALLDATASIZE SUB DUP2 ADD SWAP1 PUSH2 0xEB SWAP2 SWAP1 PUSH2 0x1287 JUMP JUMPDEST PUSH2 0x5CB JUMP JUMPDEST PUSH1 0x40 MLOAD PUSH2 0xFD SWAP2 SWAP1 PUSH2 0x14B7 JUMP JUMPDEST PUSH1 0x40 MLOAD DUP1 SWAP2 SUB SWAP1 RETURN JUMPDEST PUSH2 0x120 PUSH1 0x4 DUP1 CALLDATASIZE SUB DUP2 ADD SWAP1 PUSH2 0x11B SWAP2 SWAP1 PUSH2 0x14D9 JUMP JUMPDEST PUSH2 0x847 JUMP JUMPDEST PUSH1 0x40 MLOAD PUSH2 0x12D SWAP2 SWAP1 PUSH2 0x1541 JUMP JUMPDEST PUSH1 0x40 MLOAD DUP1 SWAP2 SUB SWAP1 RETURN JUMPDEST PUSH2 0x150 PUSH1 0x4 DUP1 CALLDATASIZE SUB DUP2 ADD SWAP1 PUSH2 0x14B SWAP2 SWAP1 PUSH2 0x1588 JUMP JUMPDEST PUSH2 0x96B JUMP JUMPDEST STOP JUMPDEST PUSH2 0x15A PUSH2 0x9F1 JUMP JUMPDEST PUSH1 0x40 MLOAD PUSH2 0x167 SWAP2 SWAP1 PUSH2 0x171E JUMP JUMPDEST PUSH1 0x40 MLOAD DUP1 SWAP2 SUB SWAP1 RETURN JUMPDEST PUSH1 0x0 DUP1 PUSH8 0xFFFFFFFFFFFFFFFF DUP2 GT ISZERO PUSH2 0x18C JUMPI PUSH2 0x18B PUSH2 0x115C JUMP JUMPDEST JUMPDEST PUSH1 0x40 MLOAD SWAP1 DUP1 DUP3 MSTORE DUP1 PUSH1 0x20 MUL PUSH1 0x20 ADD DUP3 ADD PUSH1 0x40 MSTORE DUP1 ISZERO PUSH2 0x1BF JUMPI DUP2 PUSH1 0x20 ADD JUMPDEST PUSH1 0x60 DUP2 MSTORE PUSH1 0x20 ADD SWAP1 PUSH1 0x1 SWAP1 SUB SWAP1 DUP2 PUSH2 0x1AA JUMPI SWAP1 POP JUMPDEST POP SWAP1 POP PUSH1 0x40 MLOAD DUP1 PUSH1 0x80 ADD PUSH1 0x40 MSTORE DUP1 DUP7 DUP7 DUP1 DUP1 PUSH1 0x1F ADD PUSH1 0x20 DUP1 SWAP2 DIV MUL PUSH1 0x20 ADD PUSH1 0x40 MLOAD SWAP1 DUP2 ADD PUSH1 0x40 MSTORE DUP1 SWAP4 SWAP3 SWAP2 SWAP1 DUP2 DUP2 MSTORE PUSH1 0x20 ADD DUP4 DUP4 DUP1 DUP3 DUP5 CALLDATACOPY PUSH1 0x0 DUP2 DUP5 ADD MSTORE PUSH1 0x1F NOT PUSH1 0x1F DUP3 ADD AND SWAP1 POP DUP1 DUP4 ADD SWAP3 POP POP POP POP POP POP POP DUP2 MSTORE PUSH1 0x20 ADD DUP5 DUP2 MSTORE PUSH1 0x20 ADD DUP4 DUP2 MSTORE PUSH1 0x20 ADD DUP3 DUP2 MSTORE POP PUSH1 0x1 PUSH1 0x0 CALLER PUSH20 0xFFFFFFFFFFFFFFFFFFFFFFFFFFFFFFFFFFFFFFFF AND PUSH20 0xFFFFFFFFFFFFFFFFFFFFFFFFFFFFFFFFFFFFFFFF AND DUP2 MSTORE PUSH1 0x20 ADD SWAP1 DUP2 MSTORE PUSH1 0x20 ADD PUSH1 0x0 KECCAK256 PUSH1 0x0 DUP3 ADD MLOAD DUP2 PUSH1 0x0 ADD SWAP1 DUP2 PUSH2 0x27B SWAP2 SWAP1 PUSH2 0x194C JUMP JUMPDEST POP PUSH1 0x20 DUP3 ADD MLOAD DUP2 PUSH1 0x1 ADD SSTORE PUSH1 0x40 DUP3 ADD MLOAD DUP2 PUSH1 0x2 ADD SSTORE PUSH1 0x60 DUP3 ADD MLOAD DUP2 PUSH1 0x3 ADD SWAP1 DUP1 MLOAD SWAP1 PUSH1 0x20 ADD SWAP1 PUSH2 0x2AC SWAP3 SWAP2 SWAP1 PUSH2 0xDE3 JUMP JUMPDEST POP SWAP1 POP POP POP POP POP POP POP JUMP JUMPDEST PUSH1 0x0 DUP1 PUSH8 0xFFFFFFFFFFFFFFFF DUP2 GT ISZERO PUSH2 0x2D3 JUMPI PUSH2 0x2D2 PUSH2 0x115C JUMP JUMPDEST JUMPDEST PUSH1 0x40 MLOAD SWAP1 DUP1 DUP3 MSTORE DUP1 PUSH1 0x20 MUL PUSH1 0x20 ADD DUP3 ADD PUSH1 0x40 MSTORE DUP1 ISZERO PUSH2 0x301 JUMPI DUP2 PUSH1 0x20 ADD PUSH1 0x20 DUP3 MUL DUP1 CALLDATASIZE DUP4 CALLDATACOPY DUP1 DUP3 ADD SWAP2 POP POP SWAP1 POP JUMPDEST POP SWAP1 POP PUSH1 0x40 MLOAD DUP1 PUSH1 0x80 ADD PUSH1 0x40 MSTORE DUP1 DUP9 DUP9 DUP1 DUP1 PUSH1 0x1F ADD PUSH1 0x20 DUP1 SWAP2 DIV MUL PUSH1 0x20 ADD PUSH1 0x40 MLOAD SWAP1 DUP2 ADD PUSH1 0x40 MSTORE DUP1 SWAP4 SWAP3 SWAP2 SWAP1 DUP2 DUP2 MSTORE PUSH1 0x20 ADD DUP4 DUP4 DUP1 DUP3 DUP5 CALLDATACOPY PUSH1 0x0 DUP2 DUP5 ADD MSTORE PUSH1 0x1F NOT PUSH1 0x1F DUP3 ADD AND SWAP1 POP DUP1 DUP4 ADD SWAP3 POP POP POP POP POP POP POP DUP2 MSTORE PUSH1 0x20 ADD DUP7 DUP7 DUP1 DUP1 PUSH1 0x1F ADD PUSH1 0x20 DUP1 SWAP2 DIV MUL PUSH1 0x20 ADD PUSH1 0x40 MLOAD SWAP1 DUP2 ADD PUSH1 0x40 MSTORE DUP1 SWAP4 SWAP3 SWAP2 SWAP1 DUP2 DUP2 MSTORE PUSH1 0x20 ADD DUP4 DUP4 DUP1 DUP3 DUP5 CALLDATACOPY PUSH1 0x0 DUP2 DUP5 ADD MSTORE PUSH1 0x1F NOT PUSH1 0x1F DUP3 ADD AND SWAP1 POP DUP1 DUP4 ADD SWAP3 POP POP POP POP POP POP POP DUP2 MSTORE PUSH1 0x20 ADD DUP5 DUP5 DUP1 DUP1 PUSH1 0x1F ADD PUSH1 0x20 DUP1 SWAP2 DIV MUL PUSH1 0x20 ADD PUSH1 0x40 MLOAD SWAP1 DUP2 ADD PUSH1 0x40 MSTORE DUP1 SWAP4 SWAP3 SWAP2 SWAP1 DUP2 DUP2 MSTORE PUSH1 0x20 ADD DUP4 DUP4 DUP1 DUP3 DUP5 CALLDATACOPY PUSH1 0x0 DUP2 DUP5 ADD MSTORE PUSH1 0x1F NOT PUSH1 0x1F DUP3 ADD AND SWAP1 POP DUP1 DUP4 ADD SWAP3 POP POP POP POP POP POP POP DUP2 MSTORE PUSH1 0x20 ADD DUP3 DUP2 MSTORE POP PUSH1 0x3 DUP9 DUP9 PUSH1 0x40 MLOAD PUSH2 0x403 SWAP3 SWAP2 SWAP1 PUSH2 0x1A4E JUMP JUMPDEST SWAP1 DUP2 MSTORE PUSH1 0x20 ADD PUSH1 0x40 MLOAD DUP1 SWAP2 SUB SWAP1 KECCAK256 PUSH1 0x0 DUP3 ADD MLOAD DUP2 PUSH1 0x0 ADD SWAP1 DUP2 PUSH2 0x426 SWAP2 SWAP1 PUSH2 0x194C JUMP JUMPDEST POP PUSH1 0x20 DUP3 ADD MLOAD DUP2 PUSH1 0x1 ADD SWAP1 DUP2 PUSH2 0x43C SWAP2 SWAP1 PUSH2 0x194C JUMP JUMPDEST POP PUSH1 0x40 DUP3 ADD MLOAD DUP2 PUSH1 0x2 ADD SWAP1 DUP2 PUSH2 0x452 SWAP2 SWAP1 PUSH2 0x194C JUMP JUMPDEST POP PUSH1 0x60 DUP3 ADD MLOAD DUP2 PUSH1 0x3 ADD SWAP1 DUP1 MLOAD SWAP1 PUSH1 0x20 ADD SWAP1 PUSH2 0x46F SWAP3 SWAP2 SWAP1 PUSH2 0xE3C JUMP JUMPDEST POP SWAP1 POP POP PUSH1 0x1 PUSH1 0x0 CALLER PUSH20 0xFFFFFFFFFFFFFFFFFFFFFFFFFFFFFFFFFFFFFFFF AND PUSH20 0xFFFFFFFFFFFFFFFFFFFFFFFFFFFFFFFFFFFFFFFF AND DUP2 MSTORE PUSH1 0x20 ADD SWAP1 DUP2 MSTORE PUSH1 0x20 ADD PUSH1 0x0 KECCAK256 PUSH1 0x3 ADD DUP8 DUP8 SWAP1 SWAP2 DUP1 PUSH1 0x1 DUP2 SLOAD ADD DUP1 DUP3 SSTORE DUP1 SWAP2 POP POP PUSH1 0x1 SWAP1 SUB SWAP1 PUSH1 0x0 MSTORE PUSH1 0x20 PUSH1 0x0 KECCAK256 ADD PUSH1 0x0 SWAP1 SWAP2 SWAP3 SWAP1 SWAP2 SWAP3 SWAP1 SWAP2 SWAP3 SWAP1 SWAP2 SWAP3 POP SWAP2 DUP3 PUSH2 0x4F0 SWAP3 SWAP2 SWAP1 PUSH2 0x1A72 JUMP JUMPDEST POP POP POP POP POP POP POP POP JUMP JUMPDEST PUSH1 0x40 MLOAD DUP1 PUSH1 0x60 ADD PUSH1 0x40 MSTORE DUP1 DUP6 DUP6 DUP1 DUP1 PUSH1 0x1F ADD PUSH1 0x20 DUP1 SWAP2 DIV MUL PUSH1 0x20 ADD PUSH1 0x40 MLOAD SWAP1 DUP2 ADD PUSH1 0x40 MSTORE DUP1 SWAP4 SWAP3 SWAP2 SWAP1 DUP2 DUP2 MSTORE PUSH1 0x20 ADD DUP4 DUP4 DUP1 DUP3 DUP5 CALLDATACOPY PUSH1 0x0 DUP2 DUP5 ADD MSTORE PUSH1 0x1F NOT PUSH1 0x1F DUP3 ADD AND SWAP1 POP DUP1 DUP4 ADD SWAP3 POP POP POP POP POP POP POP DUP2 MSTORE PUSH1 0x20 ADD DUP4 DUP2 MSTORE PUSH1 0x20 ADD DUP3 DUP2 MSTORE POP PUSH1 0x2 PUSH1 0x0 CALLER PUSH20 0xFFFFFFFFFFFFFFFFFFFFFFFFFFFFFFFFFFFFFFFF AND PUSH20 0xFFFFFFFFFFFFFFFFFFFFFFFFFFFFFFFFFFFFFFFF AND DUP2 MSTORE PUSH1 0x20 ADD SWAP1 DUP2 MSTORE PUSH1 0x20 ADD PUSH1 0x0 KECCAK256 PUSH1 0x0 DUP3 ADD MLOAD DUP2 PUSH1 0x0 ADD SWAP1 DUP2 PUSH2 0x5AD SWAP2 SWAP1 PUSH2 0x194C JUMP JUMPDEST POP PUSH1 0x20 DUP3 ADD MLOAD DUP2 PUSH1 0x1 ADD SSTORE PUSH1 0x40 DUP3 ADD MLOAD DUP2 PUSH1 0x2 ADD SSTORE SWAP1 POP POP POP POP POP POP JUMP JUMPDEST PUSH2 0x5D3 PUSH2 0xEC6 JUMP JUMPDEST PUSH1 0x3 DUP3 PUSH1 0x40 MLOAD PUSH2 0x5E3 SWAP2 SWAP1 PUSH2 0x1B73 JUMP JUMPDEST SWAP1 DUP2 MSTORE PUSH1 0x20 ADD PUSH1 0x40 MLOAD DUP1 SWAP2 SUB SWAP1 KECCAK256 PUSH1 0x40 MLOAD DUP1 PUSH1 0x80 ADD PUSH1 0x40 MSTORE SWAP1 DUP2 PUSH1 0x0 DUP3 ADD DUP1 SLOAD PUSH2 0x60C SWAP1 PUSH2 0x176F JUMP JUMPDEST DUP1 PUSH1 0x1F ADD PUSH1 0x20 DUP1 SWAP2 DIV MUL PUSH1 0x20 ADD PUSH1 0x40 MLOAD SWAP1 DUP2 ADD PUSH1 0x40 MSTORE DUP1 SWAP3 SWAP2 SWAP1 DUP2 DUP2 MSTORE PUSH1 0x20 ADD DUP3 DUP1 SLOAD PUSH2 0x638 SWAP1 PUSH2 0x176F JUMP JUMPDEST DUP1 ISZERO PUSH2 0x685 JUMPI DUP1 PUSH1 0x1F LT PUSH2 0x65A JUMPI PUSH2 0x100 DUP1 DUP4 SLOAD DIV MUL DUP4 MSTORE SWAP2 PUSH1 0x20 ADD SWAP2 PUSH2 0x685 JUMP JUMPDEST DUP3 ADD SWAP2 SWAP1 PUSH1 0x0 MSTORE PUSH1 0x20 PUSH1 0x0 KECCAK256 SWAP1 JUMPDEST DUP2 SLOAD DUP2 MSTORE SWAP1 PUSH1 0x1 ADD SWAP1 PUSH1 0x20 ADD DUP1 DUP4 GT PUSH2 0x668 JUMPI DUP3 SWAP1 SUB PUSH1 0x1F AND DUP3 ADD SWAP2 JUMPDEST POP POP POP POP POP DUP2 MSTORE PUSH1 0x20 ADD PUSH1 0x1 DUP3 ADD DUP1 SLOAD PUSH2 0x69E SWAP1 PUSH2 0x176F JUMP JUMPDEST DUP1 PUSH1 0x1F ADD PUSH1 0x20 DUP1 SWAP2 DIV MUL PUSH1 0x20 ADD PUSH1 0x40 MLOAD SWAP1 DUP2 ADD PUSH1 0x40 MSTORE DUP1 SWAP3 SWAP2 SWAP1 DUP2 DUP2 MSTORE PUSH1 0x20 ADD DUP3 DUP1 SLOAD PUSH2 0x6CA SWAP1 PUSH2 0x176F JUMP JUMPDEST DUP1 ISZERO PUSH2 0x717 JUMPI DUP1 PUSH1 0x1F LT PUSH2 0x6EC JUMPI PUSH2 0x100 DUP1 DUP4 SLOAD DIV MUL DUP4 MSTORE SWAP2 PUSH1 0x20 ADD SWAP2 PUSH2 0x717 JUMP JUMPDEST DUP3 ADD SWAP2 SWAP1 PUSH1 0x0 MSTORE PUSH1 0x20 PUSH1 0x0 KECCAK256 SWAP1 JUMPDEST DUP2 SLOAD DUP2 MSTORE SWAP1 PUSH1 0x1 ADD SWAP1 PUSH1 0x20 ADD DUP1 DUP4 GT PUSH2 0x6FA JUMPI DUP3 SWAP1 SUB PUSH1 0x1F AND DUP3 ADD SWAP2 JUMPDEST POP POP POP POP POP DUP2 MSTORE PUSH1 0x20 ADD PUSH1 0x2 DUP3 ADD DUP1 SLOAD PUSH2 0x730 SWAP1 PUSH2 0x176F JUMP JUMPDEST DUP1 PUSH1 0x1F ADD PUSH1 0x20 DUP1 SWAP2 DIV MUL PUSH1 0x20 ADD PUSH1 0x40 MLOAD SWAP1 DUP2 ADD PUSH1 0x40 MSTORE DUP1 SWAP3 SWAP2 SWAP1 DUP2 DUP2 MSTORE PUSH1 0x20 ADD DUP3 DUP1 SLOAD PUSH2 0x75C SWAP1 PUSH2 0x176F JUMP JUMPDEST DUP1 ISZERO PUSH2 0x7A9 JUMPI DUP1 PUSH1 0x1F LT PUSH2 0x77E JUMPI PUSH2 0x100 DUP1 DUP4 SLOAD DIV MUL DUP4 MSTORE SWAP2 PUSH1 0x20 ADD SWAP2 PUSH2 0x7A9 JUMP JUMPDEST DUP3 ADD SWAP2 SWAP1 PUSH1 0x0 MSTORE PUSH1 0x20 PUSH1 0x0 KECCAK256 SWAP1 JUMPDEST DUP2 SLOAD DUP2 MSTORE SWAP1 PUSH1 0x1 ADD SWAP1 PUSH1 0x20 ADD DUP1 DUP4 GT PUSH2 0x78C JUMPI DUP3 SWAP1 SUB PUSH1 0x1F AND DUP3 ADD SWAP2 JUMPDEST POP POP POP POP POP DUP2 MSTORE PUSH1 0x20 ADD PUSH1 0x3 DUP3 ADD DUP1 SLOAD DUP1 PUSH1 0x20 MUL PUSH1 0x20 ADD PUSH1 0x40 MLOAD SWAP1 DUP2 ADD PUSH1 0x40 MSTORE DUP1 SWAP3 SWAP2 SWAP1 DUP2 DUP2 MSTORE PUSH1 0x20 ADD DUP3 DUP1 SLOAD DUP1 ISZERO PUSH2 0x837 JUMPI PUSH1 0x20 MUL DUP3 ADD SWAP2 SWAP1 PUSH1 0x0 MSTORE PUSH1 0x20 PUSH1 0x0 KECCAK256 SWAP1 JUMPDEST DUP2 PUSH1 0x0 SWAP1 SLOAD SWAP1 PUSH2 0x100 EXP SWAP1 DIV PUSH20 0xFFFFFFFFFFFFFFFFFFFFFFFFFFFFFFFFFFFFFFFF AND PUSH20 0xFFFFFFFFFFFFFFFFFFFFFFFFFFFFFFFFFFFFFFFF AND DUP2 MSTORE PUSH1 0x20 ADD SWAP1 PUSH1 0x1 ADD SWAP1 DUP1 DUP4 GT PUSH2 0x7ED JUMPI JUMPDEST POP POP POP POP POP DUP2 MSTORE POP POP SWAP1 POP SWAP2 SWAP1 POP JUMP JUMPDEST PUSH1 0x0 DUP1 PUSH1 0x3 DUP5 DUP5 PUSH1 0x40 MLOAD PUSH2 0x85C SWAP3 SWAP2 SWAP1 PUSH2 0x1A4E JUMP JUMPDEST SWAP1 DUP2 MSTORE PUSH1 0x20 ADD PUSH1 0x40 MLOAD DUP1 SWAP2 SUB SWAP1 KECCAK256 PUSH1 0x3 ADD DUP1 SLOAD SWAP1 POP SUB PUSH2 0x87F JUMPI PUSH1 0x0 SWAP1 POP PUSH2 0x965 JUMP JUMPDEST PUSH1 0x0 JUMPDEST PUSH1 0x3 DUP5 DUP5 PUSH1 0x40 MLOAD PUSH2 0x894 SWAP3 SWAP2 SWAP1 PUSH2 0x1A4E JUMP JUMPDEST SWAP1 DUP2 MSTORE PUSH1 0x20 ADD PUSH1 0x40 MLOAD DUP1 SWAP2 SUB SWAP1 KECCAK256 PUSH1 0x3 ADD DUP1 SLOAD SWAP1 POP DUP2 LT ISZERO PUSH2 0x95F JUMPI CALLER PUSH20 0xFFFFFFFFFFFFFFFFFFFFFFFFFFFFFFFFFFFFFFFF AND PUSH1 0x3 DUP6 DUP6 PUSH1 0x40 MLOAD PUSH2 0x8D9 SWAP3 SWAP2 SWAP1 PUSH2 0x1A4E JUMP JUMPDEST SWAP1 DUP2 MSTORE PUSH1 0x20 ADD PUSH1 0x40 MLOAD DUP1 SWAP2 SUB SWAP1 KECCAK256 PUSH1 0x3 ADD DUP3 DUP2 SLOAD DUP2 LT PUSH2 0x8FC JUMPI PUSH2 0x8FB PUSH2 0x1B8A JUMP JUMPDEST JUMPDEST SWAP1 PUSH1 0x0 MSTORE PUSH1 0x20 PUSH1 0x0 KECCAK256 ADD PUSH1 0x0 SWAP1 SLOAD SWAP1 PUSH2 0x100 EXP SWAP1 DIV PUSH20 0xFFFFFFFFFFFFFFFFFFFFFFFFFFFFFFFFFFFFFFFF AND PUSH20 0xFFFFFFFFFFFFFFFFFFFFFFFFFFFFFFFFFFFFFFFF AND SUB PUSH2 0x94C JUMPI PUSH1 0x1 SWAP2 POP POP PUSH2 0x965 JUMP JUMPDEST DUP1 DUP1 PUSH2 0x957 SWAP1 PUSH2 0x1BE8 JUMP JUMPDEST SWAP2 POP POP PUSH2 0x882 JUMP JUMPDEST POP PUSH1 0x0 SWAP1 POP JUMPDEST SWAP3 SWAP2 POP POP JUMP JUMPDEST PUSH1 0x3 DUP2 PUSH1 0x40 MLOAD PUSH2 0x97B SWAP2 SWAP1 PUSH2 0x1B73 JUMP JUMPDEST SWAP1 DUP2 MSTORE PUSH1 0x20 ADD PUSH1 0x40 MLOAD DUP1 SWAP2 SUB SWAP1 KECCAK256 PUSH1 0x3 ADD DUP3 SWAP1 DUP1 PUSH1 0x1 DUP2 SLOAD ADD DUP1 DUP3 SSTORE DUP1 SWAP2 POP POP PUSH1 0x1 SWAP1 SUB SWAP1 PUSH1 0x0 MSTORE PUSH1 0x20 PUSH1 0x0 KECCAK256 ADD PUSH1 0x0 SWAP1 SWAP2 SWAP1 SWAP2 SWAP1 SWAP2 PUSH2 0x100 EXP DUP2 SLOAD DUP2 PUSH20 0xFFFFFFFFFFFFFFFFFFFFFFFFFFFFFFFFFFFFFFFF MUL NOT AND SWAP1 DUP4 PUSH20 0xFFFFFFFFFFFFFFFFFFFFFFFFFFFFFFFFFFFFFFFF AND MUL OR SWAP1 SSTORE POP POP POP JUMP JUMPDEST PUSH1 0x60 PUSH1 0x0 PUSH1 0x1 PUSH1 0x0 CALLER PUSH20 0xFFFFFFFFFFFFFFFFFFFFFFFFFFFFFFFFFFFFFFFF AND PUSH20 0xFFFFFFFFFFFFFFFFFFFFFFFFFFFFFFFFFFFFFFFF AND DUP2 MSTORE PUSH1 0x20 ADD SWAP1 DUP2 MSTORE PUSH1 0x20 ADD PUSH1 0x0 KECCAK256 PUSH1 0x3 ADD DUP1 SLOAD SWAP1 POP PUSH8 0xFFFFFFFFFFFFFFFF DUP2 GT ISZERO PUSH2 0xA54 JUMPI PUSH2 0xA53 PUSH2 0x115C JUMP JUMPDEST JUMPDEST PUSH1 0x40 MLOAD SWAP1 DUP1 DUP3 MSTORE DUP1 PUSH1 0x20 MUL PUSH1 0x20 ADD DUP3 ADD PUSH1 0x40 MSTORE DUP1 ISZERO PUSH2 0xA8D JUMPI DUP2 PUSH1 0x20 ADD JUMPDEST PUSH2 0xA7A PUSH2 0xEC6 JUMP JUMPDEST DUP2 MSTORE PUSH1 0x20 ADD SWAP1 PUSH1 0x1 SWAP1 SUB SWAP1 DUP2 PUSH2 0xA72 JUMPI SWAP1 POP JUMPDEST POP SWAP1 POP PUSH1 0x0 JUMPDEST PUSH1 0x1 PUSH1 0x0 CALLER PUSH20 0xFFFFFFFFFFFFFFFFFFFFFFFFFFFFFFFFFFFFFFFF AND PUSH20 0xFFFFFFFFFFFFFFFFFFFFFFFFFFFFFFFFFFFFFFFF AND DUP2 MSTORE PUSH1 0x20 ADD SWAP1 DUP2 MSTORE PUSH1 0x20 ADD PUSH1 0x0 KECCAK256 PUSH1 0x3 ADD DUP1 SLOAD SWAP1 POP DUP2 LT ISZERO PUSH2 0xDDB JUMPI PUSH1 0x3 PUSH1 0x1 PUSH1 0x0 CALLER PUSH20 0xFFFFFFFFFFFFFFFFFFFFFFFFFFFFFFFFFFFFFFFF AND PUSH20 0xFFFFFFFFFFFFFFFFFFFFFFFFFFFFFFFFFFFFFFFF AND DUP2 MSTORE PUSH1 0x20 ADD SWAP1 DUP2 MSTORE PUSH1 0x20 ADD PUSH1 0x0 KECCAK256 PUSH1 0x3 ADD DUP3 DUP2 SLOAD DUP2 LT PUSH2 0xB36 JUMPI PUSH2 0xB35 PUSH2 0x1B8A JUMP JUMPDEST JUMPDEST SWAP1 PUSH1 0x0 MSTORE PUSH1 0x20 PUSH1 0x0 KECCAK256 ADD PUSH1 0x40 MLOAD PUSH2 0xB4D SWAP2 SWAP1 PUSH2 0x1CB3 JUMP JUMPDEST SWAP1 DUP2 MSTORE PUSH1 0x20 ADD PUSH1 0x40 MLOAD DUP1 SWAP2 SUB SWAP1 KECCAK256 PUSH1 0x40 MLOAD DUP1 PUSH1 0x80 ADD PUSH1 0x40 MSTORE SWAP1 DUP2 PUSH1 0x0 DUP3 ADD DUP1 SLOAD PUSH2 0xB76 SWAP1 PUSH2 0x176F JUMP JUMPDEST DUP1 PUSH1 0x1F ADD PUSH1 0x20 DUP1 SWAP2 DIV MUL PUSH1 0x20 ADD PUSH1 0x40 MLOAD SWAP1 DUP2 ADD PUSH1 0x40 MSTORE DUP1 SWAP3 SWAP2 SWAP1 DUP2 DUP2 MSTORE PUSH1 0x20 ADD DUP3 DUP1 SLOAD PUSH2 0xBA2 SWAP1 PUSH2 0x176F JUMP JUMPDEST DUP1 ISZERO PUSH2 0xBEF JUMPI DUP1 PUSH1 0x1F LT PUSH2 0xBC4 JUMPI PUSH2 0x100 DUP1 DUP4 SLOAD DIV MUL DUP4 MSTORE SWAP2 PUSH1 0x20 ADD SWAP2 PUSH2 0xBEF JUMP JUMPDEST DUP3 ADD SWAP2 SWAP1 PUSH1 0x0 MSTORE PUSH1 0x20 PUSH1 0x0 KECCAK256 SWAP1 JUMPDEST DUP2 SLOAD DUP2 MSTORE SWAP1 PUSH1 0x1 ADD SWAP1 PUSH1 0x20 ADD DUP1 DUP4 GT PUSH2 0xBD2 JUMPI DUP3 SWAP1 SUB PUSH1 0x1F AND DUP3 ADD SWAP2 JUMPDEST POP POP POP POP POP DUP2 MSTORE PUSH1 0x20 ADD PUSH1 0x1 DUP3 ADD DUP1 SLOAD PUSH2 0xC08 SWAP1 PUSH2 0x176F JUMP JUMPDEST DUP1 PUSH1 0x1F ADD PUSH1 0x20 DUP1 SWAP2 DIV MUL PUSH1 0x20 ADD PUSH1 0x40 MLOAD SWAP1 DUP2 ADD PUSH1 0x40 MSTORE DUP1 SWAP3 SWAP2 SWAP1 DUP2 DUP2 MSTORE PUSH1 0x20 ADD DUP3 DUP1 SLOAD PUSH2 0xC34 SWAP1 PUSH2 0x176F JUMP JUMPDEST DUP1 ISZERO PUSH2 0xC81 JUMPI DUP1 PUSH1 0x1F LT PUSH2 0xC56 JUMPI PUSH2 0x100 DUP1 DUP4 SLOAD DIV MUL DUP4 MSTORE SWAP2 PUSH1 0x20 ADD SWAP2 PUSH2 0xC81 JUMP JUMPDEST DUP3 ADD SWAP2 SWAP1 PUSH1 0x0 MSTORE PUSH1 0x20 PUSH1 0x0 KECCAK256 SWAP1 JUMPDEST DUP2 SLOAD DUP2 MSTORE SWAP1 PUSH1 0x1 ADD SWAP1 PUSH1 0x20 ADD DUP1 DUP4 GT PUSH2 0xC64 JUMPI DUP3 SWAP1 SUB PUSH1 0x1F AND DUP3 ADD SWAP2 JUMPDEST POP POP POP POP POP DUP2 MSTORE PUSH1 0x20 ADD PUSH1 0x2 DUP3 ADD DUP1 SLOAD PUSH2 0xC9A SWAP1 PUSH2 0x176F JUMP JUMPDEST DUP1 PUSH1 0x1F ADD PUSH1 0x20 DUP1 SWAP2 DIV MUL PUSH1 0x20 ADD PUSH1 0x40 MLOAD SWAP1 DUP2 ADD PUSH1 0x40 MSTORE DUP1 SWAP3 SWAP2 SWAP1 DUP2 DUP2 MSTORE PUSH1 0x20 ADD DUP3 DUP1 SLOAD PUSH2 0xCC6 SWAP1 PUSH2 0x176F JUMP JUMPDEST DUP1 ISZERO PUSH2 0xD13 JUMPI DUP1 PUSH1 0x1F LT PUSH2 0xCE8 JUMPI PUSH2 0x100 DUP1 DUP4 SLOAD DIV MUL DUP4 MSTORE SWAP2 PUSH1 0x20 ADD SWAP2 PUSH2 0xD13 JUMP JUMPDEST DUP3 ADD SWAP2 SWAP1 PUSH1 0x0 MSTORE PUSH1 0x20 PUSH1 0x0 KECCAK256 SWAP1 JUMPDEST DUP2 SLOAD DUP2 MSTORE SWAP1 PUSH1 0x1 ADD SWAP1 PUSH1 0x20 ADD DUP1 DUP4 GT PUSH2 0xCF6 JUMPI DUP3 SWAP1 SUB PUSH1 0x1F AND DUP3 ADD SWAP2 JUMPDEST POP POP POP POP POP DUP2 MSTORE PUSH1 0x20 ADD PUSH1 0x3 DUP3 ADD DUP1 SLOAD DUP1 PUSH1 0x20 MUL PUSH1 0x20 ADD PUSH1 0x40 MLOAD SWAP1 DUP2 ADD PUSH1 0x40 MSTORE DUP1 SWAP3 SWAP2 SWAP1 DUP2 DUP2 MSTORE PUSH1 0x20 ADD DUP3 DUP1 SLOAD DUP1 ISZERO PUSH2 0xDA1 JUMPI PUSH1 0x20 MUL DUP3 ADD SWAP2 SWAP1 PUSH1 0x0 MSTORE PUSH1 0x20 PUSH1 0x0 KECCAK256 SWAP1 JUMPDEST DUP2 PUSH1 0x0 SWAP1 SLOAD SWAP1 PUSH2 0x100 EXP SWAP1 DIV PUSH20 0xFFFFFFFFFFFFFFFFFFFFFFFFFFFFFFFFFFFFFFFF AND PUSH20 0xFFFFFFFFFFFFFFFFFFFFFFFFFFFFFFFFFFFFFFFF AND DUP2 MSTORE PUSH1 0x20 ADD SWAP1 PUSH1 0x1 ADD SWAP1 DUP1 DUP4 GT PUSH2 0xD57 JUMPI JUMPDEST POP POP POP POP POP DUP2 MSTORE POP POP DUP3 DUP3 DUP2 MLOAD DUP2 LT PUSH2 0xDBD JUMPI PUSH2 0xDBC PUSH2 0x1B8A JUMP JUMPDEST JUMPDEST PUSH1 0x20 MUL PUSH1 0x20 ADD ADD DUP2 SWAP1 MSTORE POP DUP1 DUP1 PUSH2 0xDD3 SWAP1 PUSH2 0x1BE8 JUMP JUMPDEST SWAP2 POP POP PUSH2 0xA93 JUMP JUMPDEST POP DUP1 SWAP2 POP POP SWAP1 JUMP JUMPDEST DUP3 DUP1 SLOAD DUP3 DUP3 SSTORE SWAP1 PUSH1 0x0 MSTORE PUSH1 0x20 PUSH1 0x0 KECCAK256 SWAP1 DUP2 ADD SWAP3 DUP3 ISZERO PUSH2 0xE2B JUMPI SWAP2 PUSH1 0x20 MUL DUP3 ADD JUMPDEST DUP3 DUP2 GT ISZERO PUSH2 0xE2A JUMPI DUP3 MLOAD DUP3 SWAP1 DUP2 PUSH2 0xE1A SWAP2 SWAP1 PUSH2 0x194C JUMP JUMPDEST POP SWAP2 PUSH1 0x20 ADD SWAP2 SWAP1 PUSH1 0x1 ADD SWAP1 PUSH2 0xE03 JUMP JUMPDEST JUMPDEST POP SWAP1 POP PUSH2 0xE38 SWAP2 SWAP1 PUSH2 0xEEE JUMP JUMPDEST POP SWAP1 JUMP JUMPDEST DUP3 DUP1 SLOAD DUP3 DUP3 SSTORE SWAP1 PUSH1 0x0 MSTORE PUSH1 0x20 PUSH1 0x0 KECCAK256 SWAP1 DUP2 ADD SWAP3 DUP3 ISZERO PUSH2 0xEB5 JUMPI SWAP2 PUSH1 0x20 MUL DUP3 ADD JUMPDEST DUP3 DUP2 GT ISZERO PUSH2 0xEB4 JUMPI DUP3 MLOAD DUP3 PUSH1 0x0 PUSH2 0x100 EXP DUP2 SLOAD DUP2 PUSH20 0xFFFFFFFFFFFFFFFFFFFFFFFFFFFFFFFFFFFFFFFF MUL NOT AND SWAP1 DUP4 PUSH20 0xFFFFFFFFFFFFFFFFFFFFFFFFFFFFFFFFFFFFFFFF AND MUL OR SWAP1 SSTORE POP SWAP2 PUSH1 0x20 ADD SWAP2 SWAP1 PUSH1 0x1 ADD SWAP1 PUSH2 0xE5C JUMP JUMPDEST JUMPDEST POP SWAP1 POP PUSH2 0xEC2 SWAP2 SWAP1 PUSH2 0xF12 JUMP JUMPDEST POP SWAP1 JUMP JUMPDEST PUSH1 0x40 MLOAD DUP1 PUSH1 0x80 ADD PUSH1 0x40 MSTORE DUP1 PUSH1 0x60 DUP2 MSTORE PUSH1 0x20 ADD PUSH1 0x60 DUP2 MSTORE PUSH1 0x20 ADD PUSH1 0x60 DUP2 MSTORE PUSH1 0x20 ADD PUSH1 0x60 DUP2 MSTORE POP SWAP1 JUMP JUMPDEST JUMPDEST DUP1 DUP3 GT ISZERO PUSH2 0xF0E JUMPI PUSH1 0x0 DUP2 DUP2 PUSH2 0xF05 SWAP2 SWAP1 PUSH2 0xF2F JUMP JUMPDEST POP PUSH1 0x1 ADD PUSH2 0xEEF JUMP JUMPDEST POP SWAP1 JUMP JUMPDEST JUMPDEST DUP1 DUP3 GT ISZERO PUSH2 0xF2B JUMPI PUSH1 0x0 DUP2 PUSH1 0x0 SWAP1 SSTORE POP PUSH1 0x1 ADD PUSH2 0xF13 JUMP JUMPDEST POP SWAP1 JUMP JUMPDEST POP DUP1 SLOAD PUSH2 0xF3B SWAP1 PUSH2 0x176F JUMP JUMPDEST PUSH1 0x0 DUP3 SSTORE DUP1 PUSH1 0x1F LT PUSH2 0xF4D JUMPI POP PUSH2 0xF6C JUMP JUMPDEST PUSH1 0x1F ADD PUSH1 0x20 SWAP1 DIV SWAP1 PUSH1 0x0 MSTORE PUSH1 0x20 PUSH1 0x0 KECCAK256 SWAP1 DUP2 ADD SWAP1 PUSH2 0xF6B SWAP2 SWAP1 PUSH2 0xF12 JUMP JUMPDEST JUMPDEST POP JUMP JUMPDEST PUSH1 0x0 PUSH1 0x40 MLOAD SWAP1 POP SWAP1 JUMP JUMPDEST PUSH1 0x0 DUP1 REVERT JUMPDEST PUSH1 0x0 DUP1 REVERT JUMPDEST PUSH1 0x0 DUP1 REVERT JUMPDEST PUSH1 0x0 DUP1 REVERT JUMPDEST PUSH1 0x0 DUP1 REVERT JUMPDEST PUSH1 0x0 DUP1 DUP4 PUSH1 0x1F DUP5 ADD SLT PUSH2 0xFA8 JUMPI PUSH2 0xFA7 PUSH2 0xF83 JUMP JUMPDEST JUMPDEST DUP3 CALLDATALOAD SWAP1 POP PUSH8 0xFFFFFFFFFFFFFFFF DUP2 GT ISZERO PUSH2 0xFC5 JUMPI PUSH2 0xFC4 PUSH2 0xF88 JUMP JUMPDEST JUMPDEST PUSH1 0x20 DUP4 ADD SWAP2 POP DUP4 PUSH1 0x1 DUP3 MUL DUP4 ADD GT ISZERO PUSH2 0xFE1 JUMPI PUSH2 0xFE0 PUSH2 0xF8D JUMP JUMPDEST JUMPDEST SWAP3 POP SWAP3 SWAP1 POP JUMP JUMPDEST PUSH1 0x0 DUP2 SWAP1 POP SWAP2 SWAP1 POP JUMP JUMPDEST PUSH2 0xFFB DUP2 PUSH2 0xFE8 JUMP JUMPDEST DUP2 EQ PUSH2 0x1006 JUMPI PUSH1 0x0 DUP1 REVERT JUMPDEST POP JUMP JUMPDEST PUSH1 0x0 DUP2 CALLDATALOAD SWAP1 POP PUSH2 0x1018 DUP2 PUSH2 0xFF2 JUMP JUMPDEST SWAP3 SWAP2 POP POP JUMP JUMPDEST PUSH1 0x0 DUP1 PUSH1 0x0 DUP1 PUSH1 0x60 DUP6 DUP8 SUB SLT ISZERO PUSH2 0x1038 JUMPI PUSH2 0x1037 PUSH2 0xF79 JUMP JUMPDEST JUMPDEST PUSH1 0x0 DUP6 ADD CALLDATALOAD PUSH8 0xFFFFFFFFFFFFFFFF DUP2 GT ISZERO PUSH2 0x1056 JUMPI PUSH2 0x1055 PUSH2 0xF7E JUMP JUMPDEST JUMPDEST PUSH2 0x1062 DUP8 DUP3 DUP9 ADD PUSH2 0xF92 JUMP JUMPDEST SWAP5 POP SWAP5 POP POP PUSH1 0x20 PUSH2 0x1075 DUP8 DUP3 DUP9 ADD PUSH2 0x1009 JUMP JUMPDEST SWAP3 POP POP PUSH1 0x40 PUSH2 0x1086 DUP8 DUP3 DUP9 ADD PUSH2 0x1009 JUMP JUMPDEST SWAP2 POP POP SWAP3 SWAP6 SWAP2 SWAP5 POP SWAP3 POP JUMP JUMPDEST PUSH1 0x0 DUP1 PUSH1 0x0 DUP1 PUSH1 0x0 DUP1 PUSH1 0x60 DUP8 DUP10 SUB SLT ISZERO PUSH2 0x10AF JUMPI PUSH2 0x10AE PUSH2 0xF79 JUMP JUMPDEST JUMPDEST PUSH1 0x0 DUP8 ADD CALLDATALOAD PUSH8 0xFFFFFFFFFFFFFFFF DUP2 GT ISZERO PUSH2 0x10CD JUMPI PUSH2 0x10CC PUSH2 0xF7E JUMP JUMPDEST JUMPDEST PUSH2 0x10D9 DUP10 DUP3 DUP11 ADD PUSH2 0xF92 JUMP JUMPDEST SWAP7 POP SWAP7 POP POP PUSH1 0x20 DUP8 ADD CALLDATALOAD PUSH8 0xFFFFFFFFFFFFFFFF DUP2 GT ISZERO PUSH2 0x10FC JUMPI PUSH2 0x10FB PUSH2 0xF7E JUMP JUMPDEST JUMPDEST PUSH2 0x1108 DUP10 DUP3 DUP11 ADD PUSH2 0xF92 JUMP JUMPDEST SWAP5 POP SWAP5 POP POP PUSH1 0x40 DUP8 ADD CALLDATALOAD PUSH8 0xFFFFFFFFFFFFFFFF DUP2 GT ISZERO PUSH2 0x112B JUMPI PUSH2 0x112A PUSH2 0xF7E JUMP JUMPDEST JUMPDEST PUSH2 0x1137 DUP10 DUP3 DUP11 ADD PUSH2 0xF92 JUMP JUMPDEST SWAP3 POP SWAP3 POP POP SWAP3 SWAP6 POP SWAP3 SWAP6 POP SWAP3 SWAP6 JUMP JUMPDEST PUSH1 0x0 DUP1 REVERT JUMPDEST PUSH1 0x0 PUSH1 0x1F NOT PUSH1 0x1F DUP4 ADD AND SWAP1 POP SWAP2 SWAP1 POP JUMP JUMPDEST PUSH32 0x4E487B7100000000000000000000000000000000000000000000000000000000 PUSH1 0x0 MSTORE PUSH1 0x41 PUSH1 0x4 MSTORE PUSH1 0x24 PUSH1 0x0 REVERT JUMPDEST PUSH2 0x1194 DUP3 PUSH2 0x114B JUMP JUMPDEST DUP2 ADD DUP2 DUP2 LT PUSH8 0xFFFFFFFFFFFFFFFF DUP3 GT OR ISZERO PUSH2 0x11B3 JUMPI PUSH2 0x11B2 PUSH2 0x115C JUMP JUMPDEST JUMPDEST DUP1 PUSH1 0x40 MSTORE POP POP POP JUMP JUMPDEST PUSH1 0x0 PUSH2 0x11C6 PUSH2 0xF6F JUMP JUMPDEST SWAP1 POP PUSH2 0x11D2 DUP3 DUP3 PUSH2 0x118B JUMP JUMPDEST SWAP2 SWAP1 POP JUMP JUMPDEST PUSH1 0x0 PUSH8 0xFFFFFFFFFFFFFFFF DUP3 GT ISZERO PUSH2 0x11F2 JUMPI PUSH2 0x11F1 PUSH2 0x115C JUMP JUMPDEST JUMPDEST PUSH2 0x11FB DUP3 PUSH2 0x114B JUMP JUMPDEST SWAP1 POP PUSH1 0x20 DUP2 ADD SWAP1 POP SWAP2 SWAP1 POP JUMP JUMPDEST DUP3 DUP2 DUP4 CALLDATACOPY PUSH1 0x0 DUP4 DUP4 ADD MSTORE POP POP POP JUMP JUMPDEST PUSH1 0x0 PUSH2 0x122A PUSH2 0x1225 DUP5 PUSH2 0x11D7 JUMP JUMPDEST PUSH2 0x11BC JUMP JUMPDEST SWAP1 POP DUP3 DUP2 MSTORE PUSH1 0x20 DUP2 ADD DUP5 DUP5 DUP5 ADD GT ISZERO PUSH2 0x1246 JUMPI PUSH2 0x1245 PUSH2 0x1146 JUMP JUMPDEST JUMPDEST PUSH2 0x1251 DUP5 DUP3 DUP6 PUSH2 0x1208 JUMP JUMPDEST POP SWAP4 SWAP3 POP POP POP JUMP JUMPDEST PUSH1 0x0 DUP3 PUSH1 0x1F DUP4 ADD SLT PUSH2 0x126E JUMPI PUSH2 0x126D PUSH2 0xF83 JUMP JUMPDEST JUMPDEST DUP2 CALLDATALOAD PUSH2 0x127E DUP5 DUP3 PUSH1 0x20 DUP7 ADD PUSH2 0x1217 JUMP JUMPDEST SWAP2 POP POP SWAP3 SWAP2 POP POP JUMP JUMPDEST PUSH1 0x0 PUSH1 0x20 DUP3 DUP5 SUB SLT ISZERO PUSH2 0x129D JUMPI PUSH2 0x129C PUSH2 0xF79 JUMP JUMPDEST JUMPDEST PUSH1 0x0 DUP3 ADD CALLDATALOAD PUSH8 0xFFFFFFFFFFFFFFFF DUP2 GT ISZERO PUSH2 0x12BB JUMPI PUSH2 0x12BA PUSH2 0xF7E JUMP JUMPDEST JUMPDEST PUSH2 0x12C7 DUP5 DUP3 DUP6 ADD PUSH2 0x1259 JUMP JUMPDEST SWAP2 POP POP SWAP3 SWAP2 POP POP JUMP JUMPDEST PUSH1 0x0 DUP2 MLOAD SWAP1 POP SWAP2 SWAP1 POP JUMP JUMPDEST PUSH1 0x0 DUP3 DUP3 MSTORE PUSH1 0x20 DUP3 ADD SWAP1 POP SWAP3 SWAP2 POP POP JUMP JUMPDEST PUSH1 0x0 JUMPDEST DUP4 DUP2 LT ISZERO PUSH2 0x130A JUMPI DUP1 DUP3 ADD MLOAD DUP2 DUP5 ADD MSTORE PUSH1 0x20 DUP2 ADD SWAP1 POP PUSH2 0x12EF JUMP JUMPDEST PUSH1 0x0 DUP5 DUP5 ADD MSTORE POP POP POP POP JUMP JUMPDEST PUSH1 0x0 PUSH2 0x1321 DUP3 PUSH2 0x12D0 JUMP JUMPDEST PUSH2 0x132B DUP2 DUP6 PUSH2 0x12DB JUMP JUMPDEST SWAP4 POP PUSH2 0x133B DUP2 DUP6 PUSH1 0x20 DUP7 ADD PUSH2 0x12EC JUMP JUMPDEST PUSH2 0x1344 DUP2 PUSH2 0x114B JUMP JUMPDEST DUP5 ADD SWAP2 POP POP SWAP3 SWAP2 POP POP JUMP JUMPDEST PUSH1 0x0 DUP2 MLOAD SWAP1 POP SWAP2 SWAP1 POP JUMP JUMPDEST PUSH1 0x0 DUP3 DUP3 MSTORE PUSH1 0x20 DUP3 ADD SWAP1 POP SWAP3 SWAP2 POP POP JUMP JUMPDEST PUSH1 0x0 DUP2 SWAP1 POP PUSH1 0x20 DUP3 ADD SWAP1 POP SWAP2 SWAP1 POP JUMP JUMPDEST PUSH1 0x0 PUSH20 0xFFFFFFFFFFFFFFFFFFFFFFFFFFFFFFFFFFFFFFFF DUP3 AND SWAP1 POP SWAP2 SWAP1 POP JUMP JUMPDEST PUSH1 0x0 PUSH2 0x13A6 DUP3 PUSH2 0x137B JUMP JUMPDEST SWAP1 POP SWAP2 SWAP1 POP JUMP JUMPDEST PUSH2 0x13B6 DUP2 PUSH2 0x139B JUMP JUMPDEST DUP3 MSTORE POP POP JUMP JUMPDEST PUSH1 0x0 PUSH2 0x13C8 DUP4 DUP4 PUSH2 0x13AD JUMP JUMPDEST PUSH1 0x20 DUP4 ADD SWAP1 POP SWAP3 SWAP2 POP POP JUMP JUMPDEST PUSH1 0x0 PUSH1 0x20 DUP3 ADD SWAP1 POP SWAP2 SWAP1 POP JUMP JUMPDEST PUSH1 0x0 PUSH2 0x13EC DUP3 PUSH2 0x134F JUMP JUMPDEST PUSH2 0x13F6 DUP2 DUP6 PUSH2 0x135A JUMP JUMPDEST SWAP4 POP PUSH2 0x1401 DUP4 PUSH2 0x136B JUMP JUMPDEST DUP1 PUSH1 0x0 JUMPDEST DUP4 DUP2 LT ISZERO PUSH2 0x1432 JUMPI DUP2 MLOAD PUSH2 0x1419 DUP9 DUP3 PUSH2 0x13BC JUMP JUMPDEST SWAP8 POP PUSH2 0x1424 DUP4 PUSH2 0x13D4 JUMP JUMPDEST SWAP3 POP POP PUSH1 0x1 DUP2 ADD SWAP1 POP PUSH2 0x1405 JUMP JUMPDEST POP DUP6 SWAP4 POP POP POP POP SWAP3 SWAP2 POP POP JUMP JUMPDEST PUSH1 0x0 PUSH1 0x80 DUP4 ADD PUSH1 0x0 DUP4 ADD MLOAD DUP5 DUP3 SUB PUSH1 0x0 DUP7 ADD MSTORE PUSH2 0x145C DUP3 DUP3 PUSH2 0x1316 JUMP JUMPDEST SWAP2 POP POP PUSH1 0x20 DUP4 ADD MLOAD DUP5 DUP3 SUB PUSH1 0x20 DUP7 ADD MSTORE PUSH2 0x1476 DUP3 DUP3 PUSH2 0x1316 JUMP JUMPDEST SWAP2 POP POP PUSH1 0x40 DUP4 ADD MLOAD DUP5 DUP3 SUB PUSH1 0x40 DUP7 ADD MSTORE PUSH2 0x1490 DUP3 DUP3 PUSH2 0x1316 JUMP JUMPDEST SWAP2 POP POP PUSH1 0x60 DUP4 ADD MLOAD DUP5 DUP3 SUB PUSH1 0x60 DUP7 ADD MSTORE PUSH2 0x14AA DUP3 DUP3 PUSH2 0x13E1 JUMP JUMPDEST SWAP2 POP POP DUP1 SWAP2 POP POP SWAP3 SWAP2 POP POP JUMP JUMPDEST PUSH1 0x0 PUSH1 0x20 DUP3 ADD SWAP1 POP DUP2 DUP2 SUB PUSH1 0x0 DUP4 ADD MSTORE PUSH2 0x14D1 DUP2 DUP5 PUSH2 0x143F JUMP JUMPDEST SWAP1 POP SWAP3 SWAP2 POP POP JUMP JUMPDEST PUSH1 0x0 DUP1 PUSH1 0x20 DUP4 DUP6 SUB SLT ISZERO PUSH2 0x14F0 JUMPI PUSH2 0x14EF PUSH2 0xF79 JUMP JUMPDEST JUMPDEST PUSH1 0x0 DUP4 ADD CALLDATALOAD PUSH8 0xFFFFFFFFFFFFFFFF DUP2 GT ISZERO PUSH2 0x150E JUMPI PUSH2 0x150D PUSH2 0xF7E JUMP JUMPDEST JUMPDEST PUSH2 0x151A DUP6 DUP3 DUP7 ADD PUSH2 0xF92 JUMP JUMPDEST SWAP3 POP SWAP3 POP POP SWAP3 POP SWAP3 SWAP1 POP JUMP JUMPDEST PUSH1 0x0 DUP2 ISZERO ISZERO SWAP1 POP SWAP2 SWAP1 POP JUMP JUMPDEST PUSH2 0x153B DUP2 PUSH2 0x1526 JUMP JUMPDEST DUP3 MSTORE POP POP JUMP JUMPDEST PUSH1 0x0 PUSH1 0x20 DUP3 ADD SWAP1 POP PUSH2 0x1556 PUSH1 0x0 DUP4 ADD DUP5 PUSH2 0x1532 JUMP JUMPDEST SWAP3 SWAP2 POP POP JUMP JUMPDEST PUSH2 0x1565 DUP2 PUSH2 0x139B JUMP JUMPDEST DUP2 EQ PUSH2 0x1570 JUMPI PUSH1 0x0 DUP1 REVERT JUMPDEST POP JUMP JUMPDEST PUSH1 0x0 DUP2 CALLDATALOAD SWAP1 POP PUSH2 0x1582 DUP2 PUSH2 0x155C JUMP JUMPDEST SWAP3 SWAP2 POP POP JUMP JUMPDEST PUSH1 0x0 DUP1 PUSH1 0x40 DUP4 DUP6 SUB SLT ISZERO PUSH2 0x159F JUMPI PUSH2 0x159E PUSH2 0xF79 JUMP JUMPDEST JUMPDEST PUSH1 0x0 PUSH2 0x15AD DUP6 DUP3 DUP7 ADD PUSH2 0x1573 JUMP JUMPDEST SWAP3 POP POP PUSH1 0x20 DUP4 ADD CALLDATALOAD PUSH8 0xFFFFFFFFFFFFFFFF DUP2 GT ISZERO PUSH2 0x15CE JUMPI PUSH2 0x15CD PUSH2 0xF7E JUMP JUMPDEST JUMPDEST PUSH2 0x15DA DUP6 DUP3 DUP7 ADD PUSH2 0x1259 JUMP JUMPDEST SWAP2 POP POP SWAP3 POP SWAP3 SWAP1 POP JUMP JUMPDEST PUSH1 0x0 DUP2 MLOAD SWAP1 POP SWAP2 SWAP1 POP JUMP JUMPDEST PUSH1 0x0 DUP3 DUP3 MSTORE PUSH1 0x20 DUP3 ADD SWAP1 POP SWAP3 SWAP2 POP POP JUMP JUMPDEST PUSH1 0x0 DUP2 SWAP1 POP PUSH1 0x20 DUP3 ADD SWAP1 POP SWAP2 SWAP1 POP JUMP JUMPDEST PUSH1 0x0 PUSH1 0x80 DUP4 ADD PUSH1 0x0 DUP4 ADD MLOAD DUP5 DUP3 SUB PUSH1 0x0 DUP7 ADD MSTORE PUSH2 0x162D DUP3 DUP3 PUSH2 0x1316 JUMP JUMPDEST SWAP2 POP POP PUSH1 0x20 DUP4 ADD MLOAD DUP5 DUP3 SUB PUSH1 0x20 DUP7 ADD MSTORE PUSH2 0x1647 DUP3 DUP3 PUSH2 0x1316 JUMP JUMPDEST SWAP2 POP POP PUSH1 0x40 DUP4 ADD MLOAD DUP5 DUP3 SUB PUSH1 0x40 DUP7 ADD MSTORE PUSH2 0x1661 DUP3 DUP3 PUSH2 0x1316 JUMP JUMPDEST SWAP2 POP POP PUSH1 0x60 DUP4 ADD MLOAD DUP5 DUP3 SUB PUSH1 0x60 DUP7 ADD MSTORE PUSH2 0x167B DUP3 DUP3 PUSH2 0x13E1 JUMP JUMPDEST SWAP2 POP POP DUP1 SWAP2 POP POP SWAP3 SWAP2 POP POP JUMP JUMPDEST PUSH1 0x0 PUSH2 0x1694 DUP4 DUP4 PUSH2 0x1610 JUMP JUMPDEST SWAP1 POP SWAP3 SWAP2 POP POP JUMP JUMPDEST PUSH1 0x0 PUSH1 0x20 DUP3 ADD SWAP1 POP SWAP2 SWAP1 POP JUMP JUMPDEST PUSH1 0x0 PUSH2 0x16B4 DUP3 PUSH2 0x15E4 JUMP JUMPDEST PUSH2 0x16BE DUP2 DUP6 PUSH2 0x15EF JUMP JUMPDEST SWAP4 POP DUP4 PUSH1 0x20 DUP3 MUL DUP6 ADD PUSH2 0x16D0 DUP6 PUSH2 0x1600 JUMP JUMPDEST DUP1 PUSH1 0x0 JUMPDEST DUP6 DUP2 LT ISZERO PUSH2 0x170C JUMPI DUP5 DUP5 SUB DUP10 MSTORE DUP2 MLOAD PUSH2 0x16ED DUP6 DUP3 PUSH2 0x1688 JUMP JUMPDEST SWAP5 POP PUSH2 0x16F8 DUP4 PUSH2 0x169C JUMP JUMPDEST SWAP3 POP PUSH1 0x20 DUP11 ADD SWAP10 POP POP PUSH1 0x1 DUP2 ADD SWAP1 POP PUSH2 0x16D4 JUMP JUMPDEST POP DUP3 SWAP8 POP DUP8 SWAP6 POP POP POP POP POP POP SWAP3 SWAP2 POP POP JUMP JUMPDEST PUSH1 0x0 PUSH1 0x20 DUP3 ADD SWAP1 POP DUP2 DUP2 SUB PUSH1 0x0 DUP4 ADD MSTORE PUSH2 0x1738 DUP2 DUP5 PUSH2 0x16A9 JUMP JUMPDEST SWAP1 POP SWAP3 SWAP2 POP POP JUMP JUMPDEST PUSH32 0x4E487B7100000000000000000000000000000000000000000000000000000000 PUSH1 0x0 MSTORE PUSH1 0x22 PUSH1 0x4 MSTORE PUSH1 0x24 PUSH1 0x0 REVERT JUMPDEST PUSH1 0x0 PUSH1 0x2 DUP3 DIV SWAP1 POP PUSH1 0x1 DUP3 AND DUP1 PUSH2 0x1787 JUMPI PUSH1 0x7F DUP3 AND SWAP2 POP JUMPDEST PUSH1 0x20 DUP3 LT DUP2 SUB PUSH2 0x179A JUMPI PUSH2 0x1799 PUSH2 0x1740 JUMP JUMPDEST JUMPDEST POP SWAP2 SWAP1 POP JUMP JUMPDEST PUSH1 0x0 DUP2 SWAP1 POP DUP2 PUSH1 0x0 MSTORE PUSH1 0x20 PUSH1 0x0 KECCAK256 SWAP1 POP SWAP2 SWAP1 POP JUMP JUMPDEST PUSH1 0x0 PUSH1 0x20 PUSH1 0x1F DUP4 ADD DIV SWAP1 POP SWAP2 SWAP1 POP JUMP JUMPDEST PUSH1 0x0 DUP3 DUP3 SHL SWAP1 POP SWAP3 SWAP2 POP POP JUMP JUMPDEST PUSH1 0x0 PUSH1 0x8 DUP4 MUL PUSH2 0x1802 PUSH32 0xFFFFFFFFFFFFFFFFFFFFFFFFFFFFFFFFFFFFFFFFFFFFFFFFFFFFFFFFFFFFFFFF DUP3 PUSH2 0x17C5 JUMP JUMPDEST PUSH2 0x180C DUP7 DUP4 PUSH2 0x17C5 JUMP JUMPDEST SWAP6 POP DUP1 NOT DUP5 AND SWAP4 POP DUP1 DUP7 AND DUP5 OR SWAP3 POP POP POP SWAP4 SWAP3 POP POP POP JUMP JUMPDEST PUSH1 0x0 DUP2 SWAP1 POP SWAP2 SWAP1 POP JUMP JUMPDEST PUSH1 0x0 PUSH2 0x1849 PUSH2 0x1844 PUSH2 0x183F DUP5 PUSH2 0xFE8 JUMP JUMPDEST PUSH2 0x1824 JUMP JUMPDEST PUSH2 0xFE8 JUMP JUMPDEST SWAP1 POP SWAP2 SWAP1 POP JUMP JUMPDEST PUSH1 0x0 DUP2 SWAP1 POP SWAP2 SWAP1 POP JUMP JUMPDEST PUSH2 0x1863 DUP4 PUSH2 0x182E JUMP JUMPDEST PUSH2 0x1877 PUSH2 0x186F DUP3 PUSH2 0x1850 JUMP JUMPDEST DUP5 DUP5 SLOAD PUSH2 0x17D2 JUMP JUMPDEST DUP3 SSTORE POP POP POP POP JUMP JUMPDEST PUSH1 0x0 SWAP1 JUMP JUMPDEST PUSH2 0x188C PUSH2 0x187F JUMP JUMPDEST PUSH2 0x1897 DUP2 DUP5 DUP5 PUSH2 0x185A JUMP JUMPDEST POP POP POP JUMP JUMPDEST JUMPDEST DUP2 DUP2 LT ISZERO PUSH2 0x18BB JUMPI PUSH2 0x18B0 PUSH1 0x0 DUP3 PUSH2 0x1884 JUMP JUMPDEST PUSH1 0x1 DUP2 ADD SWAP1 POP PUSH2 0x189D JUMP JUMPDEST POP POP JUMP JUMPDEST PUSH1 0x1F DUP3 GT ISZERO PUSH2 0x1900 JUMPI PUSH2 0x18D1 DUP2 PUSH2 0x17A0 JUMP JUMPDEST PUSH2 0x18DA DUP5 PUSH2 0x17B5 JUMP JUMPDEST DUP2 ADD PUSH1 0x20 DUP6 LT ISZERO PUSH2 0x18E9 JUMPI DUP2 SWAP1 POP JUMPDEST PUSH2 0x18FD PUSH2 0x18F5 DUP6 PUSH2 0x17B5 JUMP JUMPDEST DUP4 ADD DUP3 PUSH2 0x189C JUMP JUMPDEST POP POP JUMPDEST POP POP POP JUMP JUMPDEST PUSH1 0x0 DUP3 DUP3 SHR SWAP1 POP SWAP3 SWAP2 POP POP JUMP JUMPDEST PUSH1 0x0 PUSH2 0x1923 PUSH1 0x0 NOT DUP5 PUSH1 0x8 MUL PUSH2 0x1905 JUMP JUMPDEST NOT DUP1 DUP4 AND SWAP2 POP POP SWAP3 SWAP2 POP POP JUMP JUMPDEST PUSH1 0x0 PUSH2 0x193C DUP4 DUP4 PUSH2 0x1912 JUMP JUMPDEST SWAP2 POP DUP3 PUSH1 0x2 MUL DUP3 OR SWAP1 POP SWAP3 SWAP2 POP POP JUMP JUMPDEST PUSH2 0x1955 DUP3 PUSH2 0x12D0 JUMP JUMPDEST PUSH8 0xFFFFFFFFFFFFFFFF DUP2 GT ISZERO PUSH2 0x196E JUMPI PUSH2 0x196D PUSH2 0x115C JUMP JUMPDEST JUMPDEST PUSH2 0x1978 DUP3 SLOAD PUSH2 0x176F JUMP JUMPDEST PUSH2 0x1983 DUP3 DUP3 DUP6 PUSH2 0x18BF JUMP JUMPDEST PUSH1 0x0 PUSH1 0x20 SWAP1 POP PUSH1 0x1F DUP4 GT PUSH1 0x1 DUP2 EQ PUSH2 0x19B6 JUMPI PUSH1 0x0 DUP5 ISZERO PUSH2 0x19A4 JUMPI DUP3 DUP8 ADD MLOAD SWAP1 POP JUMPDEST PUSH2 0x19AE DUP6 DUP3 PUSH2 0x1930 JUMP JUMPDEST DUP7 SSTORE POP PUSH2 0x1A16 JUMP JUMPDEST PUSH1 0x1F NOT DUP5 AND PUSH2 0x19C4 DUP7 PUSH2 0x17A0 JUMP JUMPDEST PUSH1 0x0 JUMPDEST DUP3 DUP2 LT ISZERO PUSH2 0x19EC JUMPI DUP5 DUP10 ADD MLOAD DUP3 SSTORE PUSH1 0x1 DUP3 ADD SWAP2 POP PUSH1 0x20 DUP6 ADD SWAP5 POP PUSH1 0x20 DUP2 ADD SWAP1 POP PUSH2 0x19C7 JUMP JUMPDEST DUP7 DUP4 LT ISZERO PUSH2 0x1A09 JUMPI DUP5 DUP10 ADD MLOAD PUSH2 0x1A05 PUSH1 0x1F DUP10 AND DUP3 PUSH2 0x1912 JUMP JUMPDEST DUP4 SSTORE POP JUMPDEST PUSH1 0x1 PUSH1 0x2 DUP9 MUL ADD DUP9 SSTORE POP POP POP JUMPDEST POP POP POP POP POP POP JUMP JUMPDEST PUSH1 0x0 DUP2 SWAP1 POP SWAP3 SWAP2 POP POP JUMP JUMPDEST PUSH1 0x0 PUSH2 0x1A35 DUP4 DUP6 PUSH2 0x1A1E JUMP JUMPDEST SWAP4 POP PUSH2 0x1A42 DUP4 DUP6 DUP5 PUSH2 0x1208 JUMP JUMPDEST DUP3 DUP5 ADD SWAP1 POP SWAP4 SWAP3 POP POP POP JUMP JUMPDEST PUSH1 0x0 PUSH2 0x1A5B DUP3 DUP5 DUP7 PUSH2 0x1A29 JUMP JUMPDEST SWAP2 POP DUP2 SWAP1 POP SWAP4 SWAP3 POP POP POP JUMP JUMPDEST PUSH1 0x0 DUP3 SWAP1 POP SWAP3 SWAP2 POP POP JUMP JUMPDEST PUSH2 0x1A7C DUP4 DUP4 PUSH2 0x1A67 JUMP JUMPDEST PUSH8 0xFFFFFFFFFFFFFFFF DUP2 GT ISZERO PUSH2 0x1A95 JUMPI PUSH2 0x1A94 PUSH2 0x115C JUMP JUMPDEST JUMPDEST PUSH2 0x1A9F DUP3 SLOAD PUSH2 0x176F JUMP JUMPDEST PUSH2 0x1AAA DUP3 DUP3 DUP6 PUSH2 0x18BF JUMP JUMPDEST PUSH1 0x0 PUSH1 0x1F DUP4 GT PUSH1 0x1 DUP2 EQ PUSH2 0x1AD9 JUMPI PUSH1 0x0 DUP5 ISZERO PUSH2 0x1AC7 JUMPI DUP3 DUP8 ADD CALLDATALOAD SWAP1 POP JUMPDEST PUSH2 0x1AD1 DUP6 DUP3 PUSH2 0x1930 JUMP JUMPDEST DUP7 SSTORE POP PUSH2 0x1B39 JUMP JUMPDEST PUSH1 0x1F NOT DUP5 AND PUSH2 0x1AE7 DUP7 PUSH2 0x17A0 JUMP JUMPDEST PUSH1 0x0 JUMPDEST DUP3 DUP2 LT ISZERO PUSH2 0x1B0F JUMPI DUP5 DUP10 ADD CALLDATALOAD DUP3 SSTORE PUSH1 0x1 DUP3 ADD SWAP2 POP PUSH1 0x20 DUP6 ADD SWAP5 POP PUSH1 0x20 DUP2 ADD SWAP1 POP PUSH2 0x1AEA JUMP JUMPDEST DUP7 DUP4 LT ISZERO PUSH2 0x1B2C JUMPI DUP5 DUP10 ADD CALLDATALOAD PUSH2 0x1B28 PUSH1 0x1F DUP10 AND DUP3 PUSH2 0x1912 JUMP JUMPDEST DUP4 SSTORE POP JUMPDEST PUSH1 0x1 PUSH1 0x2 DUP9 MUL ADD DUP9 SSTORE POP POP POP JUMPDEST POP POP POP POP POP POP POP JUMP JUMPDEST PUSH1 0x0 PUSH2 0x1B4D DUP3 PUSH2 0x12D0 JUMP JUMPDEST PUSH2 0x1B57 DUP2 DUP6 PUSH2 0x1A1E JUMP JUMPDEST SWAP4 POP PUSH2 0x1B67 DUP2 DUP6 PUSH1 0x20 DUP7 ADD PUSH2 0x12EC JUMP JUMPDEST DUP1 DUP5 ADD SWAP2 POP POP SWAP3 SWAP2 POP POP JUMP JUMPDEST PUSH1 0x0 PUSH2 0x1B7F DUP3 DUP5 PUSH2 0x1B42 JUMP JUMPDEST SWAP2 POP DUP2 SWAP1 POP SWAP3 SWAP2 POP POP JUMP JUMPDEST PUSH32 0x4E487B7100000000000000000000000000000000000000000000000000000000 PUSH1 0x0 MSTORE PUSH1 0x32 PUSH1 0x4 MSTORE PUSH1 0x24 PUSH1 0x0 REVERT JUMPDEST PUSH32 0x4E487B7100000000000000000000000000000000000000000000000000000000 PUSH1 0x0 MSTORE PUSH1 0x11 PUSH1 0x4 MSTORE PUSH1 0x24 PUSH1 0x0 REVERT JUMPDEST PUSH1 0x0 PUSH2 0x1BF3 DUP3 PUSH2 0xFE8 JUMP JUMPDEST SWAP2 POP PUSH32 0xFFFFFFFFFFFFFFFFFFFFFFFFFFFFFFFFFFFFFFFFFFFFFFFFFFFFFFFFFFFFFFFF DUP3 SUB PUSH2 0x1C25 JUMPI PUSH2 0x1C24 PUSH2 0x1BB9 JUMP JUMPDEST JUMPDEST PUSH1 0x1 DUP3 ADD SWAP1 POP SWAP2 SWAP1 POP JUMP JUMPDEST PUSH1 0x0 DUP2 SLOAD PUSH2 0x1C3D DUP2 PUSH2 0x176F JUMP JUMPDEST PUSH2 0x1C47 DUP2 DUP7 PUSH2 0x1A1E JUMP JUMPDEST SWAP5 POP PUSH1 0x1 DUP3 AND PUSH1 0x0 DUP2 EQ PUSH2 0x1C62 JUMPI PUSH1 0x1 DUP2 EQ PUSH2 0x1C77 JUMPI PUSH2 0x1CAA JUMP JUMPDEST PUSH1 0xFF NOT DUP4 AND DUP7 MSTORE DUP2 ISZERO ISZERO DUP3 MUL DUP7 ADD SWAP4 POP PUSH2 0x1CAA JUMP JUMPDEST PUSH2 0x1C80 DUP6 PUSH2 0x17A0 JUMP JUMPDEST PUSH1 0x0 JUMPDEST DUP4 DUP2 LT ISZERO PUSH2 0x1CA2 JUMPI DUP2 SLOAD DUP2 DUP10 ADD MSTORE PUSH1 0x1 DUP3 ADD SWAP2 POP PUSH1 0x20 DUP2 ADD SWAP1 POP PUSH2 0x1C83 JUMP JUMPDEST DUP4 DUP9 ADD SWAP6 POP POP POP JUMPDEST POP POP POP SWAP3 SWAP2 POP POP JUMP JUMPDEST PUSH1 0x0 PUSH2 0x1CBF DUP3 DUP5 PUSH2 0x1C30 JUMP JUMPDEST SWAP2 POP DUP2 SWAP1 POP SWAP3 SWAP2 POP POP JUMP INVALID LOG2 PUSH5 0x6970667358 0x22 SLT KECCAK256 0xAC DUP6 0xED 0xF7 0x26 DUP10 DUP11 0xA5 CALLDATALOAD 0x4A 0xCD 0xEF TIMESTAMP 0xB4 0xF7 JUMPDEST 0x4B GT 0x23 0xDF 0xC0 0xCE PUSH24 0x32BEC17B463FB2D91064736F6C6343000811003300000000 "},"methodIdentifiers":{"approveAccess(address,string)":"e4ecb7dd","canAccess(string)":"e3931154","createDoctor(string,uint256,uint256)":"d60993ae","createUser(string,uint256,uint256)":"08ea7d21","getAllFiles()":"ff24b5d5","getFile(string)":"e0876aa8","uploadFile(string,string,string)":"92bb481a"}}}}}