{
  "_format": "hh-sol-artifact-1",
  "contractName": "HealthBk",
  "sourceName": "contracts/Health.sol",
  "abi": [
    {
      "inputs": [
        {
          "internalType": "address",
          "name": "_address",
          "type": "address"
        },
        {
          "internalType": "string",
          "name": "index",
          "type": "string"
        }
      ],
      "name": "approveAccess",
      "outputs": [],
      "stateMutability": "nonpayable",
      "type": "function"
    },
    {
      "inputs": [
        {
          "internalType": "string",
          "name": "index",
          "type": "string"
        }
      ],
      "name": "canAccess",
      "outputs": [
        {
          "internalType": "bool",
          "name": "",
          "type": "bool"
        }
      ],
      "stateMutability": "view",
      "type": "function"
    },
    {
      "inputs": [
        {
          "internalType": "string",
          "name": "_name",
          "type": "string"
        },
        {
          "internalType": "uint256",
          "name": "_number",
          "type": "uint256"
        },
        {
          "internalType": "uint256",
          "name": "_age",
          "type": "uint256"
        }
      ],
      "name": "createDoctor",
      "outputs": [],
      "stateMutability": "nonpayable",
      "type": "function"
    },
    {
      "inputs": [
        {
          "internalType": "string",
          "name": "_name",
          "type": "string"
        },
        {
          "internalType": "uint256",
          "name": "_number",
          "type": "uint256"
        },
        {
          "internalType": "uint256",
          "name": "_age",
          "type": "uint256"
        }
      ],
      "name": "createUser",
      "outputs": [],
      "stateMutability": "nonpayable",
      "type": "function"
    },
    {
      "inputs": [],
      "name": "getAllFiles",
      "outputs": [
        {
          "components": [
            {
              "internalType": "string",
              "name": "fileCid",
              "type": "string"
            },
            {
              "internalType": "string",
              "name": "fileName",
              "type": "string"
            },
            {
              "internalType": "string",
              "name": "createdAt",
              "type": "string"
            },
            {
              "internalType": "address[]",
              "name": "approvals",
              "type": "address[]"
            }
          ],
          "internalType": "struct HealthBk.file[]",
          "name": "",
          "type": "tuple[]"
        }
      ],
      "stateMutability": "view",
      "type": "function"
    },
    {
      "inputs": [
        {
          "internalType": "string",
          "name": "index",
          "type": "string"
        }
      ],
      "name": "getFile",
      "outputs": [
        {
          "components": [
            {
              "internalType": "string",
              "name": "fileCid",
              "type": "string"
            },
            {
              "internalType": "string",
              "name": "fileName",
              "type": "string"
            },
            {
              "internalType": "string",
              "name": "createdAt",
              "type": "string"
            },
            {
              "internalType": "address[]",
              "name": "approvals",
              "type": "address[]"
            }
          ],
          "internalType": "struct HealthBk.file",
          "name": "",
          "type": "tuple"
        }
      ],
      "stateMutability": "view",
      "type": "function"
    },
    {
      "inputs": [
        {
          "internalType": "string",
          "name": "_hash",
          "type": "string"
        },
        {
          "internalType": "string",
          "name": "_name",
          "type": "string"
        },
        {
          "internalType": "string",
          "name": "_timestamp",
          "type": "string"
        }
      ],
      "name": "uploadFile",
      "outputs": [],
      "stateMutability": "nonpayable",
      "type": "function"
    }
  ],
  "bytecode": "0x60806040526000805534801561001457600080fd5b50611d00806100246000396000f3fe608060405234801561001057600080fd5b506004361061007d5760003560e01c8063e0876aa81161005b578063e0876aa8146100d6578063e393115414610106578063e4ecb7dd14610136578063ff24b5d5146101525761007d565b806308ea7d211461008257806392bb481a1461009e578063d60993ae146100ba575b600080fd5b61009c6004803603810190610097919061101e565b610170565b005b6100b860048036038101906100b39190611092565b6102b7565b005b6100d460048036038101906100cf919061101e565b6104fa565b005b6100f060048036038101906100eb9190611287565b6105cb565b6040516100fd91906114b7565b60405180910390f35b610120600480360381019061011b91906114d9565b610847565b60405161012d9190611541565b60405180910390f35b610150600480360381019061014b9190611588565b61096b565b005b61015a6109f1565b604051610167919061171e565b60405180910390f35b60008067ffffffffffffffff81111561018c5761018b61115c565b5b6040519080825280602002602001820160405280156101bf57816020015b60608152602001906001900390816101aa5790505b509050604051806080016040528086868080601f016020809104026020016040519081016040528093929190818152602001838380828437600081840152601f19601f82011690508083019250505050505050815260200184815260200183815260200182815250600160003373ffffffffffffffffffffffffffffffffffffffff1673ffffffffffffffffffffffffffffffffffffffff168152602001908152602001600020600082015181600001908161027b919061194c565b50602082015181600101556040820151816002015560608201518160030190805190602001906102ac929190610de3565b509050505050505050565b60008067ffffffffffffffff8111156102d3576102d261115c565b5b6040519080825280602002602001820160405280156103015781602001602082028036833780820191505090505b509050604051806080016040528088888080601f016020809104026020016040519081016040528093929190818152602001838380828437600081840152601f19601f82011690508083019250505050505050815260200186868080601f016020809104026020016040519081016040528093929190818152602001838380828437600081840152601f19601f82011690508083019250505050505050815260200184848080601f016020809104026020016040519081016040528093929190818152602001838380828437600081840152601f19601f8201169050808301925050505050505081526020018281525060038888604051610403929190611a4e565b90815260200160405180910390206000820151816000019081610426919061194c565b50602082015181600101908161043c919061194c565b506040820151816002019081610452919061194c565b50606082015181600301908051906020019061046f929190610e3c565b50905050600160003373ffffffffffffffffffffffffffffffffffffffff1673ffffffffffffffffffffffffffffffffffffffff1681526020019081526020016000206003018787909180600181540180825580915050600190039060005260206000200160009091929091929091929091925091826104f0929190611a72565b5050505050505050565b604051806060016040528085858080601f016020809104026020016040519081016040528093929190818152602001838380828437600081840152601f19601f82011690508083019250505050505050815260200183815260200182815250600260003373ffffffffffffffffffffffffffffffffffffffff1673ffffffffffffffffffffffffffffffffffffffff16815260200190815260200160002060008201518160000190816105ad919061194c565b50602082015181600101556040820151816002015590505050505050565b6105d3610ec6565b6003826040516105e39190611b73565b908152602001604051809103902060405180608001604052908160008201805461060c9061176f565b80601f01602080910402602001604051908101604052809291908181526020018280546106389061176f565b80156106855780601f1061065a57610100808354040283529160200191610685565b820191906000526020600020905b81548152906001019060200180831161066857829003601f168201915b5050505050815260200160018201805461069e9061176f565b80601f01602080910402602001604051908101604052809291908181526020018280546106ca9061176f565b80156107175780601f106106ec57610100808354040283529160200191610717565b820191906000526020600020905b8154815290600101906020018083116106fa57829003601f168201915b505050505081526020016002820180546107309061176f565b80601f016020809104026020016040519081016040528092919081815260200182805461075c9061176f565b80156107a95780601f1061077e576101008083540402835291602001916107a9565b820191906000526020600020905b81548152906001019060200180831161078c57829003601f168201915b505050505081526020016003820180548060200260200160405190810160405280929190818152602001828054801561083757602002820191906000526020600020905b8160009054906101000a900473ffffffffffffffffffffffffffffffffffffffff1673ffffffffffffffffffffffffffffffffffffffff16815260200190600101908083116107ed575b5050505050815250509050919050565b6000806003848460405161085c929190611a4e565b9081526020016040518091039020600301805490500361087f5760009050610965565b60005b60038484604051610894929190611a4e565b90815260200160405180910390206003018054905081101561095f573373ffffffffffffffffffffffffffffffffffffffff16600385856040516108d9929190611a4e565b908152602001604051809103902060030182815481106108fc576108fb611b8a565b5b9060005260206000200160009054906101000a900473ffffffffffffffffffffffffffffffffffffffff1673ffffffffffffffffffffffffffffffffffffffff160361094c576001915050610965565b808061095790611be8565b915050610882565b50600090505b92915050565b60038160405161097b9190611b73565b9081526020016040518091039020600301829080600181540180825580915050600190039060005260206000200160009091909190916101000a81548173ffffffffffffffffffffffffffffffffffffffff021916908373ffffffffffffffffffffffffffffffffffffffff1602179055505050565b60606000600160003373ffffffffffffffffffffffffffffffffffffffff1673ffffffffffffffffffffffffffffffffffffffff1681526020019081526020016000206003018054905067ffffffffffffffff811115610a5457610a5361115c565b5b604051908082528060200260200182016040528015610a8d57816020015b610a7a610ec6565b815260200190600190039081610a725790505b50905060005b600160003373ffffffffffffffffffffffffffffffffffffffff1673ffffffffffffffffffffffffffffffffffffffff16815260200190815260200160002060030180549050811015610ddb576003600160003373ffffffffffffffffffffffffffffffffffffffff1673ffffffffffffffffffffffffffffffffffffffff1681526020019081526020016000206003018281548110610b3657610b35611b8a565b5b90600052602060002001604051610b4d9190611cb3565b9081526020016040518091039020604051806080016040529081600082018054610b769061176f565b80601f0160208091040260200160405190810160405280929190818152602001828054610ba29061176f565b8015610bef5780601f10610bc457610100808354040283529160200191610bef565b820191906000526020600020905b815481529060010190602001808311610bd257829003601f168201915b50505050508152602001600182018054610c089061176f565b80601f0160208091040260200160405190810160405280929190818152602001828054610c349061176f565b8015610c815780601f10610c5657610100808354040283529160200191610c81565b820191906000526020600020905b815481529060010190602001808311610c6457829003601f168201915b50505050508152602001600282018054610c9a9061176f565b80601f0160208091040260200160405190810160405280929190818152602001828054610cc69061176f565b8015610d135780601f10610ce857610100808354040283529160200191610d13565b820191906000526020600020905b815481529060010190602001808311610cf657829003601f168201915b5050505050815260200160038201805480602002602001604051908101604052809291908181526020018280548015610da157602002820191906000526020600020905b8160009054906101000a900473ffffffffffffffffffffffffffffffffffffffff1673ffffffffffffffffffffffffffffffffffffffff1681526020019060010190808311610d57575b505050505081525050828281518110610dbd57610dbc611b8a565b5b60200260200101819052508080610dd390611be8565b915050610a93565b508091505090565b828054828255906000526020600020908101928215610e2b579160200282015b82811115610e2a578251829081610e1a919061194c565b5091602001919060010190610e03565b5b509050610e389190610eee565b5090565b828054828255906000526020600020908101928215610eb5579160200282015b82811115610eb45782518260006101000a81548173ffffffffffffffffffffffffffffffffffffffff021916908373ffffffffffffffffffffffffffffffffffffffff16021790555091602001919060010190610e5c565b5b509050610ec29190610f12565b5090565b6040518060800160405280606081526020016060815260200160608152602001606081525090565b5b80821115610f0e5760008181610f059190610f2f565b50600101610eef565b5090565b5b80821115610f2b576000816000905550600101610f13565b5090565b508054610f3b9061176f565b6000825580601f10610f4d5750610f6c565b601f016020900490600052602060002090810190610f6b9190610f12565b5b50565b6000604051905090565b600080fd5b600080fd5b600080fd5b600080fd5b600080fd5b60008083601f840112610fa857610fa7610f83565b5b8235905067ffffffffffffffff811115610fc557610fc4610f88565b5b602083019150836001820283011115610fe157610fe0610f8d565b5b9250929050565b6000819050919050565b610ffb81610fe8565b811461100657600080fd5b50565b60008135905061101881610ff2565b92915050565b6000806000806060858703121561103857611037610f79565b5b600085013567ffffffffffffffff81111561105657611055610f7e565b5b61106287828801610f92565b9450945050602061107587828801611009565b925050604061108687828801611009565b91505092959194509250565b600080600080600080606087890312156110af576110ae610f79565b5b600087013567ffffffffffffffff8111156110cd576110cc610f7e565b5b6110d989828a01610f92565b9650965050602087013567ffffffffffffffff8111156110fc576110fb610f7e565b5b61110889828a01610f92565b9450945050604087013567ffffffffffffffff81111561112b5761112a610f7e565b5b61113789828a01610f92565b92509250509295509295509295565b600080fd5b6000601f19601f8301169050919050565b7f4e487b7100000000000000000000000000000000000000000000000000000000600052604160045260246000fd5b6111948261114b565b810181811067ffffffffffffffff821117156111b3576111b261115c565b5b80604052505050565b60006111c6610f6f565b90506111d2828261118b565b919050565b600067ffffffffffffffff8211156111f2576111f161115c565b5b6111fb8261114b565b9050602081019050919050565b82818337600083830152505050565b600061122a611225846111d7565b6111bc565b90508281526020810184848401111561124657611245611146565b5b611251848285611208565b509392505050565b600082601f83011261126e5761126d610f83565b5b813561127e848260208601611217565b91505092915050565b60006020828403121561129d5761129c610f79565b5b600082013567ffffffffffffffff8111156112bb576112ba610f7e565b5b6112c784828501611259565b91505092915050565b600081519050919050565b600082825260208201905092915050565b60005b8381101561130a5780820151818401526020810190506112ef565b60008484015250505050565b6000611321826112d0565b61132b81856112db565b935061133b8185602086016112ec565b6113448161114b565b840191505092915050565b600081519050919050565b600082825260208201905092915050565b6000819050602082019050919050565b600073ffffffffffffffffffffffffffffffffffffffff82169050919050565b60006113a68261137b565b9050919050565b6113b68161139b565b82525050565b60006113c883836113ad565b60208301905092915050565b6000602082019050919050565b60006113ec8261134f565b6113f6818561135a565b93506114018361136b565b8060005b8381101561143257815161141988826113bc565b9750611424836113d4565b925050600181019050611405565b5085935050505092915050565b6000608083016000830151848203600086015261145c8282611316565b915050602083015184820360208601526114768282611316565b915050604083015184820360408601526114908282611316565b915050606083015184820360608601526114aa82826113e1565b9150508091505092915050565b600060208201905081810360008301526114d1818461143f565b905092915050565b600080602083850312156114f0576114ef610f79565b5b600083013567ffffffffffffffff81111561150e5761150d610f7e565b5b61151a85828601610f92565b92509250509250929050565b60008115159050919050565b61153b81611526565b82525050565b60006020820190506115566000830184611532565b92915050565b6115658161139b565b811461157057600080fd5b50565b6000813590506115828161155c565b92915050565b6000806040838503121561159f5761159e610f79565b5b60006115ad85828601611573565b925050602083013567ffffffffffffffff8111156115ce576115cd610f7e565b5b6115da85828601611259565b9150509250929050565b600081519050919050565b600082825260208201905092915050565b6000819050602082019050919050565b6000608083016000830151848203600086015261162d8282611316565b915050602083015184820360208601526116478282611316565b915050604083015184820360408601526116618282611316565b9150506060830151848203606086015261167b82826113e1565b9150508091505092915050565b60006116948383611610565b905092915050565b6000602082019050919050565b60006116b4826115e4565b6116be81856115ef565b9350836020820285016116d085611600565b8060005b8581101561170c57848403895281516116ed8582611688565b94506116f88361169c565b925060208a019950506001810190506116d4565b50829750879550505050505092915050565b6000602082019050818103600083015261173881846116a9565b905092915050565b7f4e487b7100000000000000000000000000000000000000000000000000000000600052602260045260246000fd5b6000600282049050600182168061178757607f821691505b60208210810361179a57611799611740565b5b50919050565b60008190508160005260206000209050919050565b60006020601f8301049050919050565b600082821b905092915050565b6000600883026118027fffffffffffffffffffffffffffffffffffffffffffffffffffffffffffffffff826117c5565b61180c86836117c5565b95508019841693508086168417925050509392505050565b6000819050919050565b600061184961184461183f84610fe8565b611824565b610fe8565b9050919050565b6000819050919050565b6118638361182e565b61187761186f82611850565b8484546117d2565b825550505050565b600090565b61188c61187f565b61189781848461185a565b505050565b5b818110156118bb576118b0600082611884565b60018101905061189d565b5050565b601f821115611900576118d1816117a0565b6118da846117b5565b810160208510156118e9578190505b6118fd6118f5856117b5565b83018261189c565b50505b505050565b600082821c905092915050565b600061192360001984600802611905565b1980831691505092915050565b600061193c8383611912565b9150826002028217905092915050565b611955826112d0565b67ffffffffffffffff81111561196e5761196d61115c565b5b611978825461176f565b6119838282856118bf565b600060209050601f8311600181146119b657600084156119a4578287015190505b6119ae8582611930565b865550611a16565b601f1984166119c4866117a0565b60005b828110156119ec578489015182556001820191506020850194506020810190506119c7565b86831015611a095784890151611a05601f891682611912565b8355505b6001600288020188555050505b505050505050565b600081905092915050565b6000611a358385611a1e565b9350611a42838584611208565b82840190509392505050565b6000611a5b828486611a29565b91508190509392505050565b600082905092915050565b611a7c8383611a67565b67ffffffffffffffff811115611a9557611a9461115c565b5b611a9f825461176f565b611aaa8282856118bf565b6000601f831160018114611ad95760008415611ac7578287013590505b611ad18582611930565b865550611b39565b601f198416611ae7866117a0565b60005b82811015611b0f57848901358255600182019150602085019450602081019050611aea565b86831015611b2c5784890135611b28601f891682611912565b8355505b6001600288020188555050505b50505050505050565b6000611b4d826112d0565b611b578185611a1e565b9350611b678185602086016112ec565b80840191505092915050565b6000611b7f8284611b42565b915081905092915050565b7f4e487b7100000000000000000000000000000000000000000000000000000000600052603260045260246000fd5b7f4e487b7100000000000000000000000000000000000000000000000000000000600052601160045260246000fd5b6000611bf382610fe8565b91507fffffffffffffffffffffffffffffffffffffffffffffffffffffffffffffffff8203611c2557611c24611bb9565b5b600182019050919050565b60008154611c3d8161176f565b611c478186611a1e565b94506001821660008114611c625760018114611c7757611caa565b60ff1983168652811515820286019350611caa565b611c80856117a0565b60005b83811015611ca257815481890152600182019150602081019050611c83565b838801955050505b50505092915050565b6000611cbf8284611c30565b91508190509291505056fea2646970667358221220ac85edf726898aa5354acdef42b4f75b4b1123dfc0ce7732bec17b463fb2d91064736f6c63430008110033",
  "linkReferences": {},
  "deployedLinkReferences": {}
}